{
	"contracts/Exercise-2.sol": {
		"Excercise2": {
			"abi": [
				{
					"inputs": [
						{
							"internalType": "uint256",
							"name": "width",
							"type": "uint256"
						},
						{
							"internalType": "uint256",
							"name": "length",
							"type": "uint256"
						},
						{
							"internalType": "uint256",
							"name": "height",
							"type": "uint256"
						}
					],
					"name": "addBox",
					"outputs": [],
					"stateMutability": "nonpayable",
					"type": "function"
				},
				{
					"inputs": [
						{
							"internalType": "uint256",
							"name": "",
							"type": "uint256"
						}
					],
					"name": "boxes",
					"outputs": [
						{
							"internalType": "uint256",
							"name": "width",
							"type": "uint256"
						},
						{
							"internalType": "uint256",
							"name": "length",
							"type": "uint256"
						},
						{
							"internalType": "uint256",
							"name": "height",
							"type": "uint256"
						}
					],
					"stateMutability": "view",
					"type": "function"
				}
			],
			"devdoc": {
				"kind": "dev",
				"methods": {},
				"version": 1
			},
			"evm": {
				"assembly": "    /* \"contracts/Exercise-2.sol\":58:382  contract Excercise2 {... */\n  mstore(0x40, 0x80)\n  callvalue\n  dup1\n  iszero\n  tag_1\n  jumpi\n  revert(0x00, 0x00)\ntag_1:\n  pop\n  dataSize(sub_0)\n  dup1\n  dataOffset(sub_0)\n  0x00\n  codecopy\n  0x00\n  return\nstop\n\nsub_0: assembly {\n        /* \"contracts/Exercise-2.sol\":58:382  contract Excercise2 {... */\n      mstore(0x40, 0x80)\n      callvalue\n      dup1\n      iszero\n      tag_1\n      jumpi\n      revert(0x00, 0x00)\n    tag_1:\n      pop\n      jumpi(tag_2, lt(calldatasize, 0x04))\n      shr(0xe0, calldataload(0x00))\n      dup1\n      0x4ed3faf2\n      eq\n      tag_3\n      jumpi\n      dup1\n      0xaa1a3a59\n      eq\n      tag_4\n      jumpi\n    tag_2:\n      revert(0x00, 0x00)\n        /* \"contracts/Exercise-2.sol\":179:197  Box[] public boxes */\n    tag_3:\n      tag_5\n      0x04\n      dup1\n      calldatasize\n      sub\n      dup2\n      add\n      swap1\n      tag_6\n      swap2\n      swap1\n      tag_7\n      jump\t// in\n    tag_6:\n      tag_8\n      jump\t// in\n    tag_5:\n      mload(0x40)\n      tag_9\n      swap4\n      swap3\n      swap2\n      swap1\n      tag_10\n      jump\t// in\n    tag_9:\n      mload(0x40)\n      dup1\n      swap2\n      sub\n      swap1\n      return\n        /* \"contracts/Exercise-2.sol\":253:380  function addBox(uint256 width, uint256 length, uint256 height) external {... */\n    tag_4:\n      tag_11\n      0x04\n      dup1\n      calldatasize\n      sub\n      dup2\n      add\n      swap1\n      tag_12\n      swap2\n      swap1\n      tag_13\n      jump\t// in\n    tag_12:\n      tag_14\n      jump\t// in\n    tag_11:\n      stop\n        /* \"contracts/Exercise-2.sol\":179:197  Box[] public boxes */\n    tag_8:\n      0x00\n      dup2\n      dup2\n      sload\n      dup2\n      lt\n      tag_15\n      jumpi\n      0x00\n      dup1\n      revert\n    tag_15:\n      swap1\n      0x00\n      mstore\n      keccak256(0x00, 0x20)\n      swap1\n      0x03\n      mul\n      add\n      0x00\n      swap2\n      pop\n      swap1\n      pop\n      dup1\n      0x00\n      add\n      sload\n      swap1\n      dup1\n      0x01\n      add\n      sload\n      swap1\n      dup1\n      0x02\n      add\n      sload\n      swap1\n      pop\n      dup4\n      jump\t// out\n        /* \"contracts/Exercise-2.sol\":253:380  function addBox(uint256 width, uint256 length, uint256 height) external {... */\n    tag_14:\n        /* \"contracts/Exercise-2.sol\":335:340  boxes */\n      0x00\n        /* \"contracts/Exercise-2.sol\":346:372  Box(width, length, height) */\n      mload(0x40)\n      dup1\n      0x60\n      add\n      0x40\n      mstore\n      dup1\n        /* \"contracts/Exercise-2.sol\":350:355  width */\n      dup6\n        /* \"contracts/Exercise-2.sol\":346:372  Box(width, length, height) */\n      dup2\n      mstore\n      0x20\n      add\n        /* \"contracts/Exercise-2.sol\":357:363  length */\n      dup5\n        /* \"contracts/Exercise-2.sol\":346:372  Box(width, length, height) */\n      dup2\n      mstore\n      0x20\n      add\n        /* \"contracts/Exercise-2.sol\":365:371  height */\n      dup4\n        /* \"contracts/Exercise-2.sol\":346:372  Box(width, length, height) */\n      dup2\n      mstore\n      pop\n        /* \"contracts/Exercise-2.sol\":335:373  boxes.push(Box(width, length, height)) */\n      swap1\n      dup1\n      0x01\n      dup2\n      sload\n      add\n      dup1\n      dup3\n      sstore\n      dup1\n      swap2\n      pop\n      pop\n      0x01\n      swap1\n      sub\n      swap1\n      0x00\n      mstore\n      keccak256(0x00, 0x20)\n      swap1\n      0x03\n      mul\n      add\n      0x00\n      swap1\n      swap2\n      swap1\n      swap2\n      swap1\n      swap2\n      pop\n      0x00\n      dup3\n      add\n      mload\n      dup2\n      0x00\n      add\n      sstore\n      0x20\n      dup3\n      add\n      mload\n      dup2\n      0x01\n      add\n      sstore\n      0x40\n      dup3\n      add\n      mload\n      dup2\n      0x02\n      add\n      sstore\n      pop\n      pop\n        /* \"contracts/Exercise-2.sol\":253:380  function addBox(uint256 width, uint256 length, uint256 height) external {... */\n      pop\n      pop\n      pop\n      jump\t// out\n        /* \"#utility.yul\":88:205   */\n    tag_20:\n        /* \"#utility.yul\":197:198   */\n      0x00\n        /* \"#utility.yul\":194:195   */\n      0x00\n        /* \"#utility.yul\":187:199   */\n      revert\n        /* \"#utility.yul\":334:411   */\n    tag_22:\n        /* \"#utility.yul\":371:378   */\n      0x00\n        /* \"#utility.yul\":400:405   */\n      dup2\n        /* \"#utility.yul\":389:405   */\n      swap1\n      pop\n        /* \"#utility.yul\":334:411   */\n      swap2\n      swap1\n      pop\n      jump\t// out\n        /* \"#utility.yul\":417:539   */\n    tag_23:\n        /* \"#utility.yul\":490:514   */\n      tag_32\n        /* \"#utility.yul\":508:513   */\n      dup2\n        /* \"#utility.yul\":490:514   */\n      tag_22\n      jump\t// in\n    tag_32:\n        /* \"#utility.yul\":483:488   */\n      dup2\n        /* \"#utility.yul\":480:515   */\n      eq\n        /* \"#utility.yul\":470:533   */\n      tag_33\n      jumpi\n        /* \"#utility.yul\":529:530   */\n      0x00\n        /* \"#utility.yul\":526:527   */\n      0x00\n        /* \"#utility.yul\":519:531   */\n      revert\n        /* \"#utility.yul\":470:533   */\n    tag_33:\n        /* \"#utility.yul\":417:539   */\n      pop\n      jump\t// out\n        /* \"#utility.yul\":545:684   */\n    tag_24:\n        /* \"#utility.yul\":591:596   */\n      0x00\n        /* \"#utility.yul\":629:635   */\n      dup2\n        /* \"#utility.yul\":616:636   */\n      calldataload\n        /* \"#utility.yul\":607:636   */\n      swap1\n      pop\n        /* \"#utility.yul\":645:678   */\n      tag_35\n        /* \"#utility.yul\":672:677   */\n      dup2\n        /* \"#utility.yul\":645:678   */\n      tag_23\n      jump\t// in\n    tag_35:\n        /* \"#utility.yul\":545:684   */\n      swap3\n      swap2\n      pop\n      pop\n      jump\t// out\n        /* \"#utility.yul\":690:1019   */\n    tag_7:\n        /* \"#utility.yul\":749:755   */\n      0x00\n        /* \"#utility.yul\":798:800   */\n      0x20\n        /* \"#utility.yul\":786:795   */\n      dup3\n        /* \"#utility.yul\":777:784   */\n      dup5\n        /* \"#utility.yul\":773:796   */\n      sub\n        /* \"#utility.yul\":769:801   */\n      slt\n        /* \"#utility.yul\":766:885   */\n      iszero\n      tag_37\n      jumpi\n        /* \"#utility.yul\":804:883   */\n      tag_38\n      tag_20\n      jump\t// in\n    tag_38:\n        /* \"#utility.yul\":766:885   */\n    tag_37:\n        /* \"#utility.yul\":924:925   */\n      0x00\n        /* \"#utility.yul\":949:1002   */\n      tag_39\n        /* \"#utility.yul\":994:1001   */\n      dup5\n        /* \"#utility.yul\":985:991   */\n      dup3\n        /* \"#utility.yul\":974:983   */\n      dup6\n        /* \"#utility.yul\":970:992   */\n      add\n        /* \"#utility.yul\":949:1002   */\n      tag_24\n      jump\t// in\n    tag_39:\n        /* \"#utility.yul\":939:1002   */\n      swap2\n      pop\n        /* \"#utility.yul\":895:1012   */\n      pop\n        /* \"#utility.yul\":690:1019   */\n      swap3\n      swap2\n      pop\n      pop\n      jump\t// out\n        /* \"#utility.yul\":1025:1143   */\n    tag_25:\n        /* \"#utility.yul\":1112:1136   */\n      tag_41\n        /* \"#utility.yul\":1130:1135   */\n      dup2\n        /* \"#utility.yul\":1112:1136   */\n      tag_22\n      jump\t// in\n    tag_41:\n        /* \"#utility.yul\":1107:1110   */\n      dup3\n        /* \"#utility.yul\":1100:1137   */\n      mstore\n        /* \"#utility.yul\":1025:1143   */\n      pop\n      pop\n      jump\t// out\n        /* \"#utility.yul\":1149:1591   */\n    tag_10:\n        /* \"#utility.yul\":1298:1302   */\n      0x00\n        /* \"#utility.yul\":1336:1338   */\n      0x60\n        /* \"#utility.yul\":1325:1334   */\n      dup3\n        /* \"#utility.yul\":1321:1339   */\n      add\n        /* \"#utility.yul\":1313:1339   */\n      swap1\n      pop\n        /* \"#utility.yul\":1349:1420   */\n      tag_43\n        /* \"#utility.yul\":1417:1418   */\n      0x00\n        /* \"#utility.yul\":1406:1415   */\n      dup4\n        /* \"#utility.yul\":1402:1419   */\n      add\n        /* \"#utility.yul\":1393:1399   */\n      dup7\n        /* \"#utility.yul\":1349:1420   */\n      tag_25\n      jump\t// in\n    tag_43:\n        /* \"#utility.yul\":1430:1502   */\n      tag_44\n        /* \"#utility.yul\":1498:1500   */\n      0x20\n        /* \"#utility.yul\":1487:1496   */\n      dup4\n        /* \"#utility.yul\":1483:1501   */\n      add\n        /* \"#utility.yul\":1474:1480   */\n      dup6\n        /* \"#utility.yul\":1430:1502   */\n      tag_25\n      jump\t// in\n    tag_44:\n        /* \"#utility.yul\":1512:1584   */\n      tag_45\n        /* \"#utility.yul\":1580:1582   */\n      0x40\n        /* \"#utility.yul\":1569:1578   */\n      dup4\n        /* \"#utility.yul\":1565:1583   */\n      add\n        /* \"#utility.yul\":1556:1562   */\n      dup5\n        /* \"#utility.yul\":1512:1584   */\n      tag_25\n      jump\t// in\n    tag_45:\n        /* \"#utility.yul\":1149:1591   */\n      swap5\n      swap4\n      pop\n      pop\n      pop\n      pop\n      jump\t// out\n        /* \"#utility.yul\":1597:2216   */\n    tag_13:\n        /* \"#utility.yul\":1674:1680   */\n      0x00\n        /* \"#utility.yul\":1682:1688   */\n      0x00\n        /* \"#utility.yul\":1690:1696   */\n      0x00\n        /* \"#utility.yul\":1739:1741   */\n      0x60\n        /* \"#utility.yul\":1727:1736   */\n      dup5\n        /* \"#utility.yul\":1718:1725   */\n      dup7\n        /* \"#utility.yul\":1714:1737   */\n      sub\n        /* \"#utility.yul\":1710:1742   */\n      slt\n        /* \"#utility.yul\":1707:1826   */\n      iszero\n      tag_47\n      jumpi\n        /* \"#utility.yul\":1745:1824   */\n      tag_48\n      tag_20\n      jump\t// in\n    tag_48:\n        /* \"#utility.yul\":1707:1826   */\n    tag_47:\n        /* \"#utility.yul\":1865:1866   */\n      0x00\n        /* \"#utility.yul\":1890:1943   */\n      tag_49\n        /* \"#utility.yul\":1935:1942   */\n      dup7\n        /* \"#utility.yul\":1926:1932   */\n      dup3\n        /* \"#utility.yul\":1915:1924   */\n      dup8\n        /* \"#utility.yul\":1911:1933   */\n      add\n        /* \"#utility.yul\":1890:1943   */\n      tag_24\n      jump\t// in\n    tag_49:\n        /* \"#utility.yul\":1880:1943   */\n      swap4\n      pop\n        /* \"#utility.yul\":1836:1953   */\n      pop\n        /* \"#utility.yul\":1992:1994   */\n      0x20\n        /* \"#utility.yul\":2018:2071   */\n      tag_50\n        /* \"#utility.yul\":2063:2070   */\n      dup7\n        /* \"#utility.yul\":2054:2060   */\n      dup3\n        /* \"#utility.yul\":2043:2052   */\n      dup8\n        /* \"#utility.yul\":2039:2061   */\n      add\n        /* \"#utility.yul\":2018:2071   */\n      tag_24\n      jump\t// in\n    tag_50:\n        /* \"#utility.yul\":2008:2071   */\n      swap3\n      pop\n        /* \"#utility.yul\":1963:2081   */\n      pop\n        /* \"#utility.yul\":2120:2122   */\n      0x40\n        /* \"#utility.yul\":2146:2199   */\n      tag_51\n        /* \"#utility.yul\":2191:2198   */\n      dup7\n        /* \"#utility.yul\":2182:2188   */\n      dup3\n        /* \"#utility.yul\":2171:2180   */\n      dup8\n        /* \"#utility.yul\":2167:2189   */\n      add\n        /* \"#utility.yul\":2146:2199   */\n      tag_24\n      jump\t// in\n    tag_51:\n        /* \"#utility.yul\":2136:2199   */\n      swap2\n      pop\n        /* \"#utility.yul\":2091:2209   */\n      pop\n        /* \"#utility.yul\":1597:2216   */\n      swap3\n      pop\n      swap3\n      pop\n      swap3\n      jump\t// out\n\n    auxdata: 0xa2646970667358221220ac4a1798c55a405aaf62953493b8a1f930ba41484126644b3d037733cc32498c64736f6c634300081e0033\n}\n",
				"bytecode": {
					"linkReferences": {},
					"object": "6080604052348015600e575f5ffd5b5061024b8061001c5f395ff3fe608060405234801561000f575f5ffd5b5060043610610034575f3560e01c80634ed3faf214610038578063aa1a3a591461006a575b5f5ffd5b610052600480360381019061004d9190610156565b610086565b60405161006193929190610190565b60405180910390f35b610084600480360381019061007f91906101c5565b6100ba565b005b5f8181548110610094575f80fd5b905f5260205f2090600302015f91509050805f0154908060010154908060020154905083565b5f604051806060016040528085815260200184815260200183815250908060018154018082558091505060019003905f5260205f2090600302015f909190919091505f820151815f015560208201518160010155604082015181600201555050505050565b5f5ffd5b5f819050919050565b61013581610123565b811461013f575f5ffd5b50565b5f813590506101508161012c565b92915050565b5f6020828403121561016b5761016a61011f565b5b5f61017884828501610142565b91505092915050565b61018a81610123565b82525050565b5f6060820190506101a35f830186610181565b6101b06020830185610181565b6101bd6040830184610181565b949350505050565b5f5f5f606084860312156101dc576101db61011f565b5b5f6101e986828701610142565b93505060206101fa86828701610142565b925050604061020b86828701610142565b915050925092509256fea2646970667358221220ac4a1798c55a405aaf62953493b8a1f930ba41484126644b3d037733cc32498c64736f6c634300081e0033",
					"opcodes": "PUSH1 0x80 PUSH1 0x40 MSTORE CALLVALUE DUP1 ISZERO PUSH1 0xE JUMPI PUSH0 PUSH0 REVERT JUMPDEST POP PUSH2 0x24B DUP1 PUSH2 0x1C PUSH0 CODECOPY PUSH0 RETURN INVALID PUSH1 0x80 PUSH1 0x40 MSTORE CALLVALUE DUP1 ISZERO PUSH2 0xF JUMPI PUSH0 PUSH0 REVERT JUMPDEST POP PUSH1 0x4 CALLDATASIZE LT PUSH2 0x34 JUMPI PUSH0 CALLDATALOAD PUSH1 0xE0 SHR DUP1 PUSH4 0x4ED3FAF2 EQ PUSH2 0x38 JUMPI DUP1 PUSH4 0xAA1A3A59 EQ PUSH2 0x6A JUMPI JUMPDEST PUSH0 PUSH0 REVERT JUMPDEST PUSH2 0x52 PUSH1 0x4 DUP1 CALLDATASIZE SUB DUP2 ADD SWAP1 PUSH2 0x4D SWAP2 SWAP1 PUSH2 0x156 JUMP JUMPDEST PUSH2 0x86 JUMP JUMPDEST PUSH1 0x40 MLOAD PUSH2 0x61 SWAP4 SWAP3 SWAP2 SWAP1 PUSH2 0x190 JUMP JUMPDEST PUSH1 0x40 MLOAD DUP1 SWAP2 SUB SWAP1 RETURN JUMPDEST PUSH2 0x84 PUSH1 0x4 DUP1 CALLDATASIZE SUB DUP2 ADD SWAP1 PUSH2 0x7F SWAP2 SWAP1 PUSH2 0x1C5 JUMP JUMPDEST PUSH2 0xBA JUMP JUMPDEST STOP JUMPDEST PUSH0 DUP2 DUP2 SLOAD DUP2 LT PUSH2 0x94 JUMPI PUSH0 DUP1 REVERT JUMPDEST SWAP1 PUSH0 MSTORE PUSH1 0x20 PUSH0 KECCAK256 SWAP1 PUSH1 0x3 MUL ADD PUSH0 SWAP2 POP SWAP1 POP DUP1 PUSH0 ADD SLOAD SWAP1 DUP1 PUSH1 0x1 ADD SLOAD SWAP1 DUP1 PUSH1 0x2 ADD SLOAD SWAP1 POP DUP4 JUMP JUMPDEST PUSH0 PUSH1 0x40 MLOAD DUP1 PUSH1 0x60 ADD PUSH1 0x40 MSTORE DUP1 DUP6 DUP2 MSTORE PUSH1 0x20 ADD DUP5 DUP2 MSTORE PUSH1 0x20 ADD DUP4 DUP2 MSTORE POP SWAP1 DUP1 PUSH1 0x1 DUP2 SLOAD ADD DUP1 DUP3 SSTORE DUP1 SWAP2 POP POP PUSH1 0x1 SWAP1 SUB SWAP1 PUSH0 MSTORE PUSH1 0x20 PUSH0 KECCAK256 SWAP1 PUSH1 0x3 MUL ADD PUSH0 SWAP1 SWAP2 SWAP1 SWAP2 SWAP1 SWAP2 POP PUSH0 DUP3 ADD MLOAD DUP2 PUSH0 ADD SSTORE PUSH1 0x20 DUP3 ADD MLOAD DUP2 PUSH1 0x1 ADD SSTORE PUSH1 0x40 DUP3 ADD MLOAD DUP2 PUSH1 0x2 ADD SSTORE POP POP POP POP POP JUMP JUMPDEST PUSH0 PUSH0 REVERT JUMPDEST PUSH0 DUP2 SWAP1 POP SWAP2 SWAP1 POP JUMP JUMPDEST PUSH2 0x135 DUP2 PUSH2 0x123 JUMP JUMPDEST DUP2 EQ PUSH2 0x13F JUMPI PUSH0 PUSH0 REVERT JUMPDEST POP JUMP JUMPDEST PUSH0 DUP2 CALLDATALOAD SWAP1 POP PUSH2 0x150 DUP2 PUSH2 0x12C JUMP JUMPDEST SWAP3 SWAP2 POP POP JUMP JUMPDEST PUSH0 PUSH1 0x20 DUP3 DUP5 SUB SLT ISZERO PUSH2 0x16B JUMPI PUSH2 0x16A PUSH2 0x11F JUMP JUMPDEST JUMPDEST PUSH0 PUSH2 0x178 DUP5 DUP3 DUP6 ADD PUSH2 0x142 JUMP JUMPDEST SWAP2 POP POP SWAP3 SWAP2 POP POP JUMP JUMPDEST PUSH2 0x18A DUP2 PUSH2 0x123 JUMP JUMPDEST DUP3 MSTORE POP POP JUMP JUMPDEST PUSH0 PUSH1 0x60 DUP3 ADD SWAP1 POP PUSH2 0x1A3 PUSH0 DUP4 ADD DUP7 PUSH2 0x181 JUMP JUMPDEST PUSH2 0x1B0 PUSH1 0x20 DUP4 ADD DUP6 PUSH2 0x181 JUMP JUMPDEST PUSH2 0x1BD PUSH1 0x40 DUP4 ADD DUP5 PUSH2 0x181 JUMP JUMPDEST SWAP5 SWAP4 POP POP POP POP JUMP JUMPDEST PUSH0 PUSH0 PUSH0 PUSH1 0x60 DUP5 DUP7 SUB SLT ISZERO PUSH2 0x1DC JUMPI PUSH2 0x1DB PUSH2 0x11F JUMP JUMPDEST JUMPDEST PUSH0 PUSH2 0x1E9 DUP7 DUP3 DUP8 ADD PUSH2 0x142 JUMP JUMPDEST SWAP4 POP POP PUSH1 0x20 PUSH2 0x1FA DUP7 DUP3 DUP8 ADD PUSH2 0x142 JUMP JUMPDEST SWAP3 POP POP PUSH1 0x40 PUSH2 0x20B DUP7 DUP3 DUP8 ADD PUSH2 0x142 JUMP JUMPDEST SWAP2 POP POP SWAP3 POP SWAP3 POP SWAP3 JUMP INVALID LOG2 PUSH5 0x6970667358 0x22 SLT KECCAK256 0xAC BLOBBASEFEE OR SWAP9 0xC5 GAS BLOCKHASH GAS 0xAF PUSH3 0x953493 0xB8 LOG1 EXTDELEGATECALL ADDRESS 0xBA COINBASE BASEFEE COINBASE 0x26 PUSH5 0x4B3D037733 0xCC ORIGIN BLOBHASH DUP13 PUSH5 0x736F6C6343 STOP ADDMOD 0x1E STOP CALLER "
				},
				"gasEstimates": {
					"creation": {
						"codeDepositCost": "117400",
						"executionCost": "163",
						"totalCost": "117563"
					},
					"external": {
						"addBox(uint256,uint256,uint256)": "infinite",
						"boxes(uint256)": "infinite"
					}
				},
				"methodIdentifiers": {
					"addBox(uint256,uint256,uint256)": "aa1a3a59",
					"boxes(uint256)": "4ed3faf2"
				}
			},
			"storageLayout": {
				"storage": [
					{
						"astId": 12,
						"contract": "contracts/Exercise-2.sol:Excercise2",
						"label": "boxes",
						"offset": 0,
						"slot": "0",
						"type": "t_array(t_struct(Box)8_storage)dyn_storage"
					}
				],
				"types": {
					"t_array(t_struct(Box)8_storage)dyn_storage": {
						"base": "t_struct(Box)8_storage",
						"encoding": "dynamic_array",
						"label": "struct Excercise2.Box[]",
						"numberOfBytes": "32"
					},
					"t_struct(Box)8_storage": {
						"encoding": "inplace",
						"label": "struct Excercise2.Box",
						"members": [
							{
								"astId": 3,
								"contract": "contracts/Exercise-2.sol:Excercise2",
								"label": "width",
								"offset": 0,
								"slot": "0",
								"type": "t_uint256"
							},
							{
								"astId": 5,
								"contract": "contracts/Exercise-2.sol:Excercise2",
								"label": "length",
								"offset": 0,
								"slot": "1",
								"type": "t_uint256"
							},
							{
								"astId": 7,
								"contract": "contracts/Exercise-2.sol:Excercise2",
								"label": "height",
								"offset": 0,
								"slot": "2",
								"type": "t_uint256"
							}
						],
						"numberOfBytes": "96"
					},
					"t_uint256": {
						"encoding": "inplace",
						"label": "uint256",
						"numberOfBytes": "32"
					}
				}
			},
			"userdoc": {
				"kind": "user",
				"methods": {
					"addBox(uint256,uint256,uint256)": {
						"notice": "Add a new Box to the boxes array"
					}
				},
				"version": 1
			}
		}
	}
}