{
	"contracts/MembershipSystemUpgrade.sol": {
		"MembershipSystem": {
			"abi": [
				{
					"anonymous": false,
					"inputs": [
						{
							"indexed": true,
							"internalType": "address",
							"name": "memberAddress",
							"type": "address"
						},
						{
							"indexed": false,
							"internalType": "uint256",
							"name": "id",
							"type": "uint256"
						},
						{
							"indexed": false,
							"internalType": "string",
							"name": "name",
							"type": "string"
						}
					],
					"name": "MemberAdded",
					"type": "event"
				},
				{
					"anonymous": false,
					"inputs": [
						{
							"indexed": true,
							"internalType": "address",
							"name": "memberAddress",
							"type": "address"
						},
						{
							"indexed": false,
							"internalType": "string",
							"name": "newName",
							"type": "string"
						}
					],
					"name": "MemberNameUpdated",
					"type": "event"
				},
				{
					"anonymous": false,
					"inputs": [
						{
							"indexed": true,
							"internalType": "address",
							"name": "memberAddress",
							"type": "address"
						}
					],
					"name": "MemberRemoved",
					"type": "event"
				},
				{
					"inputs": [
						{
							"internalType": "address",
							"name": "_memberAddress",
							"type": "address"
						},
						{
							"internalType": "string",
							"name": "_name",
							"type": "string"
						}
					],
					"name": "addMember",
					"outputs": [],
					"stateMutability": "nonpayable",
					"type": "function"
				},
				{
					"inputs": [
						{
							"internalType": "address",
							"name": "_memberAddress",
							"type": "address"
						}
					],
					"name": "getMemberDetails",
					"outputs": [
						{
							"internalType": "uint256",
							"name": "",
							"type": "uint256"
						},
						{
							"internalType": "string",
							"name": "",
							"type": "string"
						},
						{
							"internalType": "uint256",
							"name": "",
							"type": "uint256"
						},
						{
							"internalType": "enum MembershipSystem.MembershipStatus",
							"name": "",
							"type": "uint8"
						},
						{
							"internalType": "bool",
							"name": "",
							"type": "bool"
						}
					],
					"stateMutability": "view",
					"type": "function"
				},
				{
					"inputs": [],
					"name": "getNextMemberId",
					"outputs": [
						{
							"internalType": "uint256",
							"name": "",
							"type": "uint256"
						}
					],
					"stateMutability": "view",
					"type": "function"
				},
				{
					"inputs": [
						{
							"internalType": "address",
							"name": "_memberAddress",
							"type": "address"
						}
					],
					"name": "isMember",
					"outputs": [
						{
							"internalType": "bool",
							"name": "",
							"type": "bool"
						}
					],
					"stateMutability": "view",
					"type": "function"
				},
				{
					"inputs": [
						{
							"internalType": "address",
							"name": "_memberAddress",
							"type": "address"
						}
					],
					"name": "removeMember",
					"outputs": [],
					"stateMutability": "nonpayable",
					"type": "function"
				},
				{
					"inputs": [
						{
							"internalType": "address",
							"name": "_memberAddress",
							"type": "address"
						},
						{
							"internalType": "string",
							"name": "_newName",
							"type": "string"
						}
					],
					"name": "updateMemberName",
					"outputs": [],
					"stateMutability": "nonpayable",
					"type": "function"
				}
			],
			"devdoc": {
				"kind": "dev",
				"methods": {
					"addMember(address,string)": {
						"details": "Adds a new member to the system.",
						"params": {
							"_memberAddress": "The wallet address of the new member.",
							"_name": "The name of the new member. Why `external`? This function is designed to be called only from outside the contract (by users). `external` is more gas-efficient than `public` for this use case because it doesn't need to copy arguments to memory."
						}
					},
					"getMemberDetails(address)": {
						"details": "Retrieves the details of a specific member.",
						"params": {
							"_memberAddress": "The address of the member to look up. Why `external view`? Needed to allow external callers to read data from the `private` members mapping without gas cost."
						}
					},
					"getNextMemberId()": {
						"details": "Returns the next available member ID. Why `external view`? Allows anyone to see the current member count without gas cost. Necessary because `memberCounter` is now `internal`."
					},
					"isMember(address)": {
						"details": "Checks if an address is registered as an active member. Why `external view`? This function only reads state, so `view` is appropriate and saves gas."
					},
					"removeMember(address)": {
						"details": "Deactivates a member by setting their isActive flag to false. Why `external`? Again, this is an action initiated by an external user, making `external` the optimal choice."
					},
					"updateMemberName(address,string)": {
						"details": "Updates the name of an existing member. Why `external`? Same reason as addMember: it's only called from outside and is more gas-efficient."
					}
				},
				"version": 1
			},
			"evm": {
				"assembly": "    /* \"contracts/MembershipSystemUpgrade.sol\":173:6756  contract MembershipSystem {... */\n  mstore(0x40, 0x80)\n    /* \"contracts/MembershipSystemUpgrade.sol\":1452:1453  1 */\n  0x01\n    /* \"contracts/MembershipSystemUpgrade.sol\":1422:1453  uint internal memberCounter = 1 */\n  dup1\n  sstore\n    /* \"contracts/MembershipSystemUpgrade.sol\":173:6756  contract MembershipSystem {... */\n  callvalue\n  dup1\n  iszero\n  tag_1\n  jumpi\n  revert(0x00, 0x00)\ntag_1:\n  pop\n  dataSize(sub_0)\n  dup1\n  dataOffset(sub_0)\n  0x00\n  codecopy\n  0x00\n  return\nstop\n\nsub_0: assembly {\n        /* \"contracts/MembershipSystemUpgrade.sol\":173:6756  contract MembershipSystem {... */\n      mstore(0x40, 0x80)\n      callvalue\n      dup1\n      iszero\n      tag_1\n      jumpi\n      revert(0x00, 0x00)\n    tag_1:\n      pop\n      jumpi(tag_2, lt(calldatasize, 0x04))\n      shr(0xe0, calldataload(0x00))\n      dup1\n      0x0b1ca49a\n      eq\n      tag_3\n      jumpi\n      dup1\n      0x83fd0954\n      eq\n      tag_4\n      jumpi\n      dup1\n      0xa230c524\n      eq\n      tag_5\n      jumpi\n      dup1\n      0xc127c247\n      eq\n      tag_6\n      jumpi\n      dup1\n      0xcb37be9e\n      eq\n      tag_7\n      jumpi\n      dup1\n      0xe83162d2\n      eq\n      tag_8\n      jumpi\n    tag_2:\n      revert(0x00, 0x00)\n        /* \"contracts/MembershipSystemUpgrade.sol\":4878:5524  function removeMember(address _memberAddress) external {... */\n    tag_3:\n      tag_9\n      0x04\n      dup1\n      calldatasize\n      sub\n      dup2\n      add\n      swap1\n      tag_10\n      swap2\n      swap1\n      tag_11\n      jump\t// in\n    tag_10:\n      tag_12\n      jump\t// in\n    tag_9:\n      stop\n        /* \"contracts/MembershipSystemUpgrade.sol\":6189:6444  function getMemberDetails(address _memberAddress) external view returns (uint, string memory, uint, MembershipStatus, bool) {... */\n    tag_4:\n      tag_13\n      0x04\n      dup1\n      calldatasize\n      sub\n      dup2\n      add\n      swap1\n      tag_14\n      swap2\n      swap1\n      tag_11\n      jump\t// in\n    tag_14:\n      tag_15\n      jump\t// in\n    tag_13:\n      mload(0x40)\n      tag_16\n      swap6\n      swap5\n      swap4\n      swap3\n      swap2\n      swap1\n      tag_17\n      jump\t// in\n    tag_16:\n      mload(0x40)\n      dup1\n      swap2\n      sub\n      swap1\n      return\n        /* \"contracts/MembershipSystemUpgrade.sol\":5755:5917  function isMember(address _memberAddress) external view returns (bool) {... */\n    tag_5:\n      tag_18\n      0x04\n      dup1\n      calldatasize\n      sub\n      dup2\n      add\n      swap1\n      tag_19\n      swap2\n      swap1\n      tag_11\n      jump\t// in\n    tag_19:\n      tag_20\n      jump\t// in\n    tag_18:\n      mload(0x40)\n      tag_21\n      swap2\n      swap1\n      tag_22\n      jump\t// in\n    tag_21:\n      mload(0x40)\n      dup1\n      swap2\n      sub\n      swap1\n      return\n        /* \"contracts/MembershipSystemUpgrade.sol\":2430:4085  function addMember(address _memberAddress, string memory _name) external {... */\n    tag_6:\n      tag_23\n      0x04\n      dup1\n      calldatasize\n      sub\n      dup2\n      add\n      swap1\n      tag_24\n      swap2\n      swap1\n      tag_25\n      jump\t// in\n    tag_24:\n      tag_26\n      jump\t// in\n    tag_23:\n      stop\n        /* \"contracts/MembershipSystemUpgrade.sol\":6661:6754  function getNextMemberId() external view returns (uint) {... */\n    tag_7:\n      tag_27\n      tag_28\n      jump\t// in\n    tag_27:\n      mload(0x40)\n      tag_29\n      swap2\n      swap1\n      tag_30\n      jump\t// in\n    tag_29:\n      mload(0x40)\n      dup1\n      swap2\n      sub\n      swap1\n      return\n        /* \"contracts/MembershipSystemUpgrade.sol\":4265:4665  function updateMemberName(address _memberAddress, string memory _newName) external {... */\n    tag_8:\n      tag_31\n      0x04\n      dup1\n      calldatasize\n      sub\n      dup2\n      add\n      swap1\n      tag_32\n      swap2\n      swap1\n      tag_25\n      jump\t// in\n    tag_32:\n      tag_33\n      jump\t// in\n    tag_31:\n      stop\n        /* \"contracts/MembershipSystemUpgrade.sol\":4878:5524  function removeMember(address _memberAddress) external {... */\n    tag_12:\n        /* \"contracts/MembershipSystemUpgrade.sol\":5279:5284  false */\n      0x00\n        /* \"contracts/MembershipSystemUpgrade.sol\":5244:5251  members */\n      0x00\n        /* \"contracts/MembershipSystemUpgrade.sol\":5244:5267  members[_memberAddress] */\n      0x00\n        /* \"contracts/MembershipSystemUpgrade.sol\":5252:5266  _memberAddress */\n      dup4\n        /* \"contracts/MembershipSystemUpgrade.sol\":5244:5267  members[_memberAddress] */\n      0xffffffffffffffffffffffffffffffffffffffff\n      and\n      0xffffffffffffffffffffffffffffffffffffffff\n      and\n      dup2\n      mstore\n      0x20\n      add\n      swap1\n      dup2\n      mstore\n      0x20\n      add\n      0x00\n      keccak256\n        /* \"contracts/MembershipSystemUpgrade.sol\":5244:5276  members[_memberAddress].isActive */\n      0x03\n      add\n      0x01\n        /* \"contracts/MembershipSystemUpgrade.sol\":5244:5284  members[_memberAddress].isActive = false */\n      0x0100\n      exp\n      dup2\n      sload\n      dup2\n      0xff\n      mul\n      not\n      and\n      swap1\n      dup4\n      iszero\n      iszero\n      mul\n      or\n      swap1\n      sstore\n      pop\n        /* \"contracts/MembershipSystemUpgrade.sol\":5502:5516  _memberAddress */\n      dup1\n        /* \"contracts/MembershipSystemUpgrade.sol\":5488:5517  MemberRemoved(_memberAddress) */\n      0xffffffffffffffffffffffffffffffffffffffff\n      and\n      0x6e76fb4c77256006d9c38ec7d82b45a8c8f3c27b1d6766fffc42dfb8de684492\n      mload(0x40)\n      mload(0x40)\n      dup1\n      swap2\n      sub\n      swap1\n      log2\n        /* \"contracts/MembershipSystemUpgrade.sol\":4878:5524  function removeMember(address _memberAddress) external {... */\n      pop\n      jump\t// out\n        /* \"contracts/MembershipSystemUpgrade.sol\":6189:6444  function getMemberDetails(address _memberAddress) external view returns (uint, string memory, uint, MembershipStatus, bool) {... */\n    tag_15:\n        /* \"contracts/MembershipSystemUpgrade.sol\":6262:6266  uint */\n      0x00\n        /* \"contracts/MembershipSystemUpgrade.sol\":6268:6281  string memory */\n      0x60\n        /* \"contracts/MembershipSystemUpgrade.sol\":6283:6287  uint */\n      0x00\n        /* \"contracts/MembershipSystemUpgrade.sol\":6289:6305  MembershipStatus */\n      0x00\n        /* \"contracts/MembershipSystemUpgrade.sol\":6307:6311  bool */\n      0x00\n        /* \"contracts/MembershipSystemUpgrade.sol\":6323:6339  Member storage m */\n      0x00\n        /* \"contracts/MembershipSystemUpgrade.sol\":6342:6349  members */\n      0x00\n        /* \"contracts/MembershipSystemUpgrade.sol\":6342:6365  members[_memberAddress] */\n      0x00\n        /* \"contracts/MembershipSystemUpgrade.sol\":6350:6364  _memberAddress */\n      dup9\n        /* \"contracts/MembershipSystemUpgrade.sol\":6342:6365  members[_memberAddress] */\n      0xffffffffffffffffffffffffffffffffffffffff\n      and\n      0xffffffffffffffffffffffffffffffffffffffff\n      and\n      dup2\n      mstore\n      0x20\n      add\n      swap1\n      dup2\n      mstore\n      0x20\n      add\n      0x00\n      keccak256\n        /* \"contracts/MembershipSystemUpgrade.sol\":6323:6365  Member storage m = members[_memberAddress] */\n      swap1\n      pop\n        /* \"contracts/MembershipSystemUpgrade.sol\":6383:6384  m */\n      dup1\n        /* \"contracts/MembershipSystemUpgrade.sol\":6383:6387  m.id */\n      0x00\n      add\n      sload\n        /* \"contracts/MembershipSystemUpgrade.sol\":6389:6390  m */\n      dup2\n        /* \"contracts/MembershipSystemUpgrade.sol\":6389:6395  m.name */\n      0x01\n      add\n        /* \"contracts/MembershipSystemUpgrade.sol\":6397:6398  m */\n      dup3\n        /* \"contracts/MembershipSystemUpgrade.sol\":6397:6406  m.balance */\n      0x02\n      add\n      sload\n        /* \"contracts/MembershipSystemUpgrade.sol\":6408:6409  m */\n      dup4\n        /* \"contracts/MembershipSystemUpgrade.sol\":6408:6424  m.membershipType */\n      0x03\n      add\n      0x00\n      swap1\n      sload\n      swap1\n      0x0100\n      exp\n      swap1\n      div\n      0xff\n      and\n        /* \"contracts/MembershipSystemUpgrade.sol\":6426:6427  m */\n      dup5\n        /* \"contracts/MembershipSystemUpgrade.sol\":6426:6436  m.isActive */\n      0x03\n      add\n      0x01\n      swap1\n      sload\n      swap1\n      0x0100\n      exp\n      swap1\n      div\n      0xff\n      and\n        /* \"contracts/MembershipSystemUpgrade.sol\":6375:6437  return (m.id, m.name, m.balance, m.membershipType, m.isActive) */\n      dup4\n      dup1\n      sload\n      tag_36\n      swap1\n      tag_37\n      jump\t// in\n    tag_36:\n      dup1\n      0x1f\n      add\n      0x20\n      dup1\n      swap2\n      div\n      mul\n      0x20\n      add\n      mload(0x40)\n      swap1\n      dup2\n      add\n      0x40\n      mstore\n      dup1\n      swap3\n      swap2\n      swap1\n      dup2\n      dup2\n      mstore\n      0x20\n      add\n      dup3\n      dup1\n      sload\n      tag_38\n      swap1\n      tag_37\n      jump\t// in\n    tag_38:\n      dup1\n      iszero\n      tag_39\n      jumpi\n      dup1\n      0x1f\n      lt\n      tag_40\n      jumpi\n      0x0100\n      dup1\n      dup4\n      sload\n      div\n      mul\n      dup4\n      mstore\n      swap2\n      0x20\n      add\n      swap2\n      jump(tag_39)\n    tag_40:\n      dup3\n      add\n      swap2\n      swap1\n      0x00\n      mstore\n      keccak256(0x00, 0x20)\n      swap1\n    tag_41:\n      dup2\n      sload\n      dup2\n      mstore\n      swap1\n      0x01\n      add\n      swap1\n      0x20\n      add\n      dup1\n      dup4\n      gt\n      tag_41\n      jumpi\n      dup3\n      swap1\n      sub\n      0x1f\n      and\n      dup3\n      add\n      swap2\n    tag_39:\n      pop\n      pop\n      pop\n      pop\n      pop\n      swap4\n      pop\n      swap6\n      pop\n      swap6\n      pop\n      swap6\n      pop\n      swap6\n      pop\n      swap6\n      pop\n      pop\n        /* \"contracts/MembershipSystemUpgrade.sol\":6189:6444  function getMemberDetails(address _memberAddress) external view returns (uint, string memory, uint, MembershipStatus, bool) {... */\n      swap2\n      swap4\n      swap6\n      swap1\n      swap3\n      swap5\n      pop\n      jump\t// out\n        /* \"contracts/MembershipSystemUpgrade.sol\":5755:5917  function isMember(address _memberAddress) external view returns (bool) {... */\n    tag_20:\n        /* \"contracts/MembershipSystemUpgrade.sol\":5820:5824  bool */\n      0x00\n        /* \"contracts/MembershipSystemUpgrade.sol\":5873:5874  0 */\n      0x00\n        /* \"contracts/MembershipSystemUpgrade.sol\":5843:5850  members */\n      0x00\n        /* \"contracts/MembershipSystemUpgrade.sol\":5843:5866  members[_memberAddress] */\n      0x00\n        /* \"contracts/MembershipSystemUpgrade.sol\":5851:5865  _memberAddress */\n      dup5\n        /* \"contracts/MembershipSystemUpgrade.sol\":5843:5866  members[_memberAddress] */\n      0xffffffffffffffffffffffffffffffffffffffff\n      and\n      0xffffffffffffffffffffffffffffffffffffffff\n      and\n      dup2\n      mstore\n      0x20\n      add\n      swap1\n      dup2\n      mstore\n      0x20\n      add\n      0x00\n      keccak256\n        /* \"contracts/MembershipSystemUpgrade.sol\":5843:5869  members[_memberAddress].id */\n      0x00\n      add\n      sload\n        /* \"contracts/MembershipSystemUpgrade.sol\":5843:5874  members[_memberAddress].id != 0 */\n      eq\n      iszero\n        /* \"contracts/MembershipSystemUpgrade.sol\":5843:5910  members[_memberAddress].id != 0 && members[_memberAddress].isActive */\n      dup1\n      iszero\n      tag_43\n      jumpi\n      pop\n        /* \"contracts/MembershipSystemUpgrade.sol\":5878:5885  members */\n      0x00\n        /* \"contracts/MembershipSystemUpgrade.sol\":5878:5901  members[_memberAddress] */\n      0x00\n        /* \"contracts/MembershipSystemUpgrade.sol\":5886:5900  _memberAddress */\n      dup4\n        /* \"contracts/MembershipSystemUpgrade.sol\":5878:5901  members[_memberAddress] */\n      0xffffffffffffffffffffffffffffffffffffffff\n      and\n      0xffffffffffffffffffffffffffffffffffffffff\n      and\n      dup2\n      mstore\n      0x20\n      add\n      swap1\n      dup2\n      mstore\n      0x20\n      add\n      0x00\n      keccak256\n        /* \"contracts/MembershipSystemUpgrade.sol\":5878:5910  members[_memberAddress].isActive */\n      0x03\n      add\n      0x01\n      swap1\n      sload\n      swap1\n      0x0100\n      exp\n      swap1\n      div\n      0xff\n      and\n        /* \"contracts/MembershipSystemUpgrade.sol\":5843:5910  members[_memberAddress].id != 0 && members[_memberAddress].isActive */\n    tag_43:\n        /* \"contracts/MembershipSystemUpgrade.sol\":5836:5910  return members[_memberAddress].id != 0 && members[_memberAddress].isActive */\n      swap1\n      pop\n        /* \"contracts/MembershipSystemUpgrade.sol\":5755:5917  function isMember(address _memberAddress) external view returns (bool) {... */\n      swap2\n      swap1\n      pop\n      jump\t// out\n        /* \"contracts/MembershipSystemUpgrade.sol\":2430:4085  function addMember(address _memberAddress, string memory _name) external {... */\n    tag_26:\n        /* \"contracts/MembershipSystemUpgrade.sol\":3713:3737  Member storage newMember */\n      0x00\n        /* \"contracts/MembershipSystemUpgrade.sol\":3740:3747  members */\n      0x00\n        /* \"contracts/MembershipSystemUpgrade.sol\":3740:3763  members[_memberAddress] */\n      0x00\n        /* \"contracts/MembershipSystemUpgrade.sol\":3748:3762  _memberAddress */\n      dup5\n        /* \"contracts/MembershipSystemUpgrade.sol\":3740:3763  members[_memberAddress] */\n      0xffffffffffffffffffffffffffffffffffffffff\n      and\n      0xffffffffffffffffffffffffffffffffffffffff\n      and\n      dup2\n      mstore\n      0x20\n      add\n      swap1\n      dup2\n      mstore\n      0x20\n      add\n      0x00\n      keccak256\n        /* \"contracts/MembershipSystemUpgrade.sol\":3713:3763  Member storage newMember = members[_memberAddress] */\n      swap1\n      pop\n        /* \"contracts/MembershipSystemUpgrade.sol\":3788:3801  memberCounter */\n      sload(0x01)\n        /* \"contracts/MembershipSystemUpgrade.sol\":3773:3782  newMember */\n      dup2\n        /* \"contracts/MembershipSystemUpgrade.sol\":3773:3785  newMember.id */\n      0x00\n      add\n        /* \"contracts/MembershipSystemUpgrade.sol\":3773:3801  newMember.id = memberCounter */\n      dup2\n      swap1\n      sstore\n      pop\n        /* \"contracts/MembershipSystemUpgrade.sol\":3828:3833  _name */\n      dup2\n        /* \"contracts/MembershipSystemUpgrade.sol\":3811:3820  newMember */\n      dup2\n        /* \"contracts/MembershipSystemUpgrade.sol\":3811:3825  newMember.name */\n      0x01\n      add\n        /* \"contracts/MembershipSystemUpgrade.sol\":3811:3833  newMember.name = _name */\n      swap1\n      dup2\n      tag_45\n      swap2\n      swap1\n      tag_46\n      jump\t// in\n    tag_45:\n      pop\n        /* \"contracts/MembershipSystemUpgrade.sol\":3863:3864  0 */\n      0x00\n        /* \"contracts/MembershipSystemUpgrade.sol\":3843:3852  newMember */\n      dup2\n        /* \"contracts/MembershipSystemUpgrade.sol\":3843:3860  newMember.balance */\n      0x02\n      add\n        /* \"contracts/MembershipSystemUpgrade.sol\":3843:3864  newMember.balance = 0 */\n      dup2\n      swap1\n      sstore\n      pop\n        /* \"contracts/MembershipSystemUpgrade.sol\":3901:3923  MembershipStatus.Basic */\n      0x00\n        /* \"contracts/MembershipSystemUpgrade.sol\":3874:3883  newMember */\n      dup2\n        /* \"contracts/MembershipSystemUpgrade.sol\":3874:3898  newMember.membershipType */\n      0x03\n      add\n      0x00\n        /* \"contracts/MembershipSystemUpgrade.sol\":3874:3923  newMember.membershipType = MembershipStatus.Basic */\n      0x0100\n      exp\n      dup2\n      sload\n      dup2\n      0xff\n      mul\n      not\n      and\n      swap1\n      dup4\n      0x02\n      dup2\n      gt\n      iszero\n      tag_47\n      jumpi\n      tag_48\n      tag_49\n      jump\t// in\n    tag_48:\n    tag_47:\n      mul\n      or\n      swap1\n      sstore\n      pop\n        /* \"contracts/MembershipSystemUpgrade.sol\":3976:3980  true */\n      0x01\n        /* \"contracts/MembershipSystemUpgrade.sol\":3955:3964  newMember */\n      dup2\n        /* \"contracts/MembershipSystemUpgrade.sol\":3955:3973  newMember.isActive */\n      0x03\n      add\n      0x01\n        /* \"contracts/MembershipSystemUpgrade.sol\":3955:3980  newMember.isActive = true */\n      0x0100\n      exp\n      dup2\n      sload\n      dup2\n      0xff\n      mul\n      not\n      and\n      swap1\n      dup4\n      iszero\n      iszero\n      mul\n      or\n      swap1\n      sstore\n      pop\n        /* \"contracts/MembershipSystemUpgrade.sol\":4008:4022  _memberAddress */\n      dup3\n        /* \"contracts/MembershipSystemUpgrade.sol\":3996:4053  MemberAdded(_memberAddress, newMember.id, newMember.name) */\n      0xffffffffffffffffffffffffffffffffffffffff\n      and\n      0x411ca3c73320e32049030c152ebf6ec3670d7bd79481083214171dd817aebaa8\n        /* \"contracts/MembershipSystemUpgrade.sol\":4024:4033  newMember */\n      dup3\n        /* \"contracts/MembershipSystemUpgrade.sol\":4024:4036  newMember.id */\n      0x00\n      add\n      sload\n        /* \"contracts/MembershipSystemUpgrade.sol\":4038:4047  newMember */\n      dup4\n        /* \"contracts/MembershipSystemUpgrade.sol\":4038:4052  newMember.name */\n      0x01\n      add\n        /* \"contracts/MembershipSystemUpgrade.sol\":3996:4053  MemberAdded(_memberAddress, newMember.id, newMember.name) */\n      mload(0x40)\n      tag_50\n      swap3\n      swap2\n      swap1\n      tag_51\n      jump\t// in\n    tag_50:\n      mload(0x40)\n      dup1\n      swap2\n      sub\n      swap1\n      log2\n        /* \"contracts/MembershipSystemUpgrade.sol\":4063:4076  memberCounter */\n      0x01\n      0x00\n        /* \"contracts/MembershipSystemUpgrade.sol\":4063:4078  memberCounter++ */\n      dup2\n      sload\n      dup1\n      swap3\n      swap2\n      swap1\n      tag_52\n      swap1\n      tag_53\n      jump\t// in\n    tag_52:\n      swap2\n      swap1\n      pop\n      sstore\n      pop\n        /* \"contracts/MembershipSystemUpgrade.sol\":2503:4085  {... */\n      pop\n        /* \"contracts/MembershipSystemUpgrade.sol\":2430:4085  function addMember(address _memberAddress, string memory _name) external {... */\n      pop\n      pop\n      jump\t// out\n        /* \"contracts/MembershipSystemUpgrade.sol\":6661:6754  function getNextMemberId() external view returns (uint) {... */\n    tag_28:\n        /* \"contracts/MembershipSystemUpgrade.sol\":6711:6715  uint */\n      0x00\n        /* \"contracts/MembershipSystemUpgrade.sol\":6734:6747  memberCounter */\n      sload(0x01)\n        /* \"contracts/MembershipSystemUpgrade.sol\":6727:6747  return memberCounter */\n      swap1\n      pop\n        /* \"contracts/MembershipSystemUpgrade.sol\":6661:6754  function getNextMemberId() external view returns (uint) {... */\n      swap1\n      jump\t// out\n        /* \"contracts/MembershipSystemUpgrade.sol\":4265:4665  function updateMemberName(address _memberAddress, string memory _newName) external {... */\n    tag_33:\n        /* \"contracts/MembershipSystemUpgrade.sol\":4592:4600  _newName */\n      dup1\n        /* \"contracts/MembershipSystemUpgrade.sol\":4561:4568  members */\n      0x00\n        /* \"contracts/MembershipSystemUpgrade.sol\":4561:4584  members[_memberAddress] */\n      0x00\n        /* \"contracts/MembershipSystemUpgrade.sol\":4569:4583  _memberAddress */\n      dup5\n        /* \"contracts/MembershipSystemUpgrade.sol\":4561:4584  members[_memberAddress] */\n      0xffffffffffffffffffffffffffffffffffffffff\n      and\n      0xffffffffffffffffffffffffffffffffffffffff\n      and\n      dup2\n      mstore\n      0x20\n      add\n      swap1\n      dup2\n      mstore\n      0x20\n      add\n      0x00\n      keccak256\n        /* \"contracts/MembershipSystemUpgrade.sol\":4561:4589  members[_memberAddress].name */\n      0x01\n      add\n        /* \"contracts/MembershipSystemUpgrade.sol\":4561:4600  members[_memberAddress].name = _newName */\n      swap1\n      dup2\n      tag_56\n      swap2\n      swap1\n      tag_46\n      jump\t// in\n    tag_56:\n      pop\n        /* \"contracts/MembershipSystemUpgrade.sol\":4633:4647  _memberAddress */\n      dup2\n        /* \"contracts/MembershipSystemUpgrade.sol\":4615:4658  MemberNameUpdated(_memberAddress, _newName) */\n      0xffffffffffffffffffffffffffffffffffffffff\n      and\n      0x8c3f0a126770a9ca2d1d20fb0ec1cd3de15ef9f431b88f9455821931ecf49f14\n        /* \"contracts/MembershipSystemUpgrade.sol\":4649:4657  _newName */\n      dup3\n        /* \"contracts/MembershipSystemUpgrade.sol\":4615:4658  MemberNameUpdated(_memberAddress, _newName) */\n      mload(0x40)\n      tag_57\n      swap2\n      swap1\n      tag_58\n      jump\t// in\n    tag_57:\n      mload(0x40)\n      dup1\n      swap2\n      sub\n      swap1\n      log2\n        /* \"contracts/MembershipSystemUpgrade.sol\":4265:4665  function updateMemberName(address _memberAddress, string memory _newName) external {... */\n      pop\n      pop\n      jump\t// out\n        /* \"#utility.yul\":7:82   */\n    tag_59:\n        /* \"#utility.yul\":40:46   */\n      0x00\n        /* \"#utility.yul\":73:75   */\n      0x40\n        /* \"#utility.yul\":67:76   */\n      mload\n        /* \"#utility.yul\":57:76   */\n      swap1\n      pop\n        /* \"#utility.yul\":7:82   */\n      swap1\n      jump\t// out\n        /* \"#utility.yul\":88:205   */\n    tag_60:\n        /* \"#utility.yul\":197:198   */\n      0x00\n        /* \"#utility.yul\":194:195   */\n      0x00\n        /* \"#utility.yul\":187:199   */\n      revert\n        /* \"#utility.yul\":211:328   */\n    tag_61:\n        /* \"#utility.yul\":320:321   */\n      0x00\n        /* \"#utility.yul\":317:318   */\n      0x00\n        /* \"#utility.yul\":310:322   */\n      revert\n        /* \"#utility.yul\":334:460   */\n    tag_62:\n        /* \"#utility.yul\":371:378   */\n      0x00\n        /* \"#utility.yul\":411:453   */\n      0xffffffffffffffffffffffffffffffffffffffff\n        /* \"#utility.yul\":404:409   */\n      dup3\n        /* \"#utility.yul\":400:454   */\n      and\n        /* \"#utility.yul\":389:454   */\n      swap1\n      pop\n        /* \"#utility.yul\":334:460   */\n      swap2\n      swap1\n      pop\n      jump\t// out\n        /* \"#utility.yul\":466:562   */\n    tag_63:\n        /* \"#utility.yul\":503:510   */\n      0x00\n        /* \"#utility.yul\":532:556   */\n      tag_112\n        /* \"#utility.yul\":550:555   */\n      dup3\n        /* \"#utility.yul\":532:556   */\n      tag_62\n      jump\t// in\n    tag_112:\n        /* \"#utility.yul\":521:556   */\n      swap1\n      pop\n        /* \"#utility.yul\":466:562   */\n      swap2\n      swap1\n      pop\n      jump\t// out\n        /* \"#utility.yul\":568:690   */\n    tag_64:\n        /* \"#utility.yul\":641:665   */\n      tag_114\n        /* \"#utility.yul\":659:664   */\n      dup2\n        /* \"#utility.yul\":641:665   */\n      tag_63\n      jump\t// in\n    tag_114:\n        /* \"#utility.yul\":634:639   */\n      dup2\n        /* \"#utility.yul\":631:666   */\n      eq\n        /* \"#utility.yul\":621:684   */\n      tag_115\n      jumpi\n        /* \"#utility.yul\":680:681   */\n      0x00\n        /* \"#utility.yul\":677:678   */\n      0x00\n        /* \"#utility.yul\":670:682   */\n      revert\n        /* \"#utility.yul\":621:684   */\n    tag_115:\n        /* \"#utility.yul\":568:690   */\n      pop\n      jump\t// out\n        /* \"#utility.yul\":696:835   */\n    tag_65:\n        /* \"#utility.yul\":742:747   */\n      0x00\n        /* \"#utility.yul\":780:786   */\n      dup2\n        /* \"#utility.yul\":767:787   */\n      calldataload\n        /* \"#utility.yul\":758:787   */\n      swap1\n      pop\n        /* \"#utility.yul\":796:829   */\n      tag_117\n        /* \"#utility.yul\":823:828   */\n      dup2\n        /* \"#utility.yul\":796:829   */\n      tag_64\n      jump\t// in\n    tag_117:\n        /* \"#utility.yul\":696:835   */\n      swap3\n      swap2\n      pop\n      pop\n      jump\t// out\n        /* \"#utility.yul\":841:1170   */\n    tag_11:\n        /* \"#utility.yul\":900:906   */\n      0x00\n        /* \"#utility.yul\":949:951   */\n      0x20\n        /* \"#utility.yul\":937:946   */\n      dup3\n        /* \"#utility.yul\":928:935   */\n      dup5\n        /* \"#utility.yul\":924:947   */\n      sub\n        /* \"#utility.yul\":920:952   */\n      slt\n        /* \"#utility.yul\":917:1036   */\n      iszero\n      tag_119\n      jumpi\n        /* \"#utility.yul\":955:1034   */\n      tag_120\n      tag_60\n      jump\t// in\n    tag_120:\n        /* \"#utility.yul\":917:1036   */\n    tag_119:\n        /* \"#utility.yul\":1075:1076   */\n      0x00\n        /* \"#utility.yul\":1100:1153   */\n      tag_121\n        /* \"#utility.yul\":1145:1152   */\n      dup5\n        /* \"#utility.yul\":1136:1142   */\n      dup3\n        /* \"#utility.yul\":1125:1134   */\n      dup6\n        /* \"#utility.yul\":1121:1143   */\n      add\n        /* \"#utility.yul\":1100:1153   */\n      tag_65\n      jump\t// in\n    tag_121:\n        /* \"#utility.yul\":1090:1153   */\n      swap2\n      pop\n        /* \"#utility.yul\":1046:1163   */\n      pop\n        /* \"#utility.yul\":841:1170   */\n      swap3\n      swap2\n      pop\n      pop\n      jump\t// out\n        /* \"#utility.yul\":1176:1253   */\n    tag_66:\n        /* \"#utility.yul\":1213:1220   */\n      0x00\n        /* \"#utility.yul\":1242:1247   */\n      dup2\n        /* \"#utility.yul\":1231:1247   */\n      swap1\n      pop\n        /* \"#utility.yul\":1176:1253   */\n      swap2\n      swap1\n      pop\n      jump\t// out\n        /* \"#utility.yul\":1259:1377   */\n    tag_67:\n        /* \"#utility.yul\":1346:1370   */\n      tag_124\n        /* \"#utility.yul\":1364:1369   */\n      dup2\n        /* \"#utility.yul\":1346:1370   */\n      tag_66\n      jump\t// in\n    tag_124:\n        /* \"#utility.yul\":1341:1344   */\n      dup3\n        /* \"#utility.yul\":1334:1371   */\n      mstore\n        /* \"#utility.yul\":1259:1377   */\n      pop\n      pop\n      jump\t// out\n        /* \"#utility.yul\":1383:1482   */\n    tag_68:\n        /* \"#utility.yul\":1435:1441   */\n      0x00\n        /* \"#utility.yul\":1469:1474   */\n      dup2\n        /* \"#utility.yul\":1463:1475   */\n      mload\n        /* \"#utility.yul\":1453:1475   */\n      swap1\n      pop\n        /* \"#utility.yul\":1383:1482   */\n      swap2\n      swap1\n      pop\n      jump\t// out\n        /* \"#utility.yul\":1488:1657   */\n    tag_69:\n        /* \"#utility.yul\":1572:1583   */\n      0x00\n        /* \"#utility.yul\":1606:1612   */\n      dup3\n        /* \"#utility.yul\":1601:1604   */\n      dup3\n        /* \"#utility.yul\":1594:1613   */\n      mstore\n        /* \"#utility.yul\":1646:1650   */\n      0x20\n        /* \"#utility.yul\":1641:1644   */\n      dup3\n        /* \"#utility.yul\":1637:1651   */\n      add\n        /* \"#utility.yul\":1622:1651   */\n      swap1\n      pop\n        /* \"#utility.yul\":1488:1657   */\n      swap3\n      swap2\n      pop\n      pop\n      jump\t// out\n        /* \"#utility.yul\":1663:1802   */\n    tag_70:\n        /* \"#utility.yul\":1752:1758   */\n      dup3\n        /* \"#utility.yul\":1747:1750   */\n      dup2\n        /* \"#utility.yul\":1742:1745   */\n      dup4\n        /* \"#utility.yul\":1736:1759   */\n      mcopy\n        /* \"#utility.yul\":1793:1794   */\n      0x00\n        /* \"#utility.yul\":1784:1790   */\n      dup4\n        /* \"#utility.yul\":1779:1782   */\n      dup4\n        /* \"#utility.yul\":1775:1791   */\n      add\n        /* \"#utility.yul\":1768:1795   */\n      mstore\n        /* \"#utility.yul\":1663:1802   */\n      pop\n      pop\n      pop\n      jump\t// out\n        /* \"#utility.yul\":1808:1910   */\n    tag_71:\n        /* \"#utility.yul\":1849:1855   */\n      0x00\n        /* \"#utility.yul\":1900:1902   */\n      0x1f\n        /* \"#utility.yul\":1896:1903   */\n      not\n        /* \"#utility.yul\":1891:1893   */\n      0x1f\n        /* \"#utility.yul\":1884:1889   */\n      dup4\n        /* \"#utility.yul\":1880:1894   */\n      add\n        /* \"#utility.yul\":1876:1904   */\n      and\n        /* \"#utility.yul\":1866:1904   */\n      swap1\n      pop\n        /* \"#utility.yul\":1808:1910   */\n      swap2\n      swap1\n      pop\n      jump\t// out\n        /* \"#utility.yul\":1916:2293   */\n    tag_72:\n        /* \"#utility.yul\":2004:2007   */\n      0x00\n        /* \"#utility.yul\":2032:2071   */\n      tag_130\n        /* \"#utility.yul\":2065:2070   */\n      dup3\n        /* \"#utility.yul\":2032:2071   */\n      tag_68\n      jump\t// in\n    tag_130:\n        /* \"#utility.yul\":2087:2158   */\n      tag_131\n        /* \"#utility.yul\":2151:2157   */\n      dup2\n        /* \"#utility.yul\":2146:2149   */\n      dup6\n        /* \"#utility.yul\":2087:2158   */\n      tag_69\n      jump\t// in\n    tag_131:\n        /* \"#utility.yul\":2080:2158   */\n      swap4\n      pop\n        /* \"#utility.yul\":2167:2232   */\n      tag_132\n        /* \"#utility.yul\":2225:2231   */\n      dup2\n        /* \"#utility.yul\":2220:2223   */\n      dup6\n        /* \"#utility.yul\":2213:2217   */\n      0x20\n        /* \"#utility.yul\":2206:2211   */\n      dup7\n        /* \"#utility.yul\":2202:2218   */\n      add\n        /* \"#utility.yul\":2167:2232   */\n      tag_70\n      jump\t// in\n    tag_132:\n        /* \"#utility.yul\":2257:2286   */\n      tag_133\n        /* \"#utility.yul\":2279:2285   */\n      dup2\n        /* \"#utility.yul\":2257:2286   */\n      tag_71\n      jump\t// in\n    tag_133:\n        /* \"#utility.yul\":2252:2255   */\n      dup5\n        /* \"#utility.yul\":2248:2287   */\n      add\n        /* \"#utility.yul\":2241:2287   */\n      swap2\n      pop\n        /* \"#utility.yul\":2008:2293   */\n      pop\n        /* \"#utility.yul\":1916:2293   */\n      swap3\n      swap2\n      pop\n      pop\n      jump\t// out\n        /* \"#utility.yul\":2299:2479   */\n    tag_49:\n        /* \"#utility.yul\":2347:2424   */\n      0x4e487b7100000000000000000000000000000000000000000000000000000000\n        /* \"#utility.yul\":2344:2345   */\n      0x00\n        /* \"#utility.yul\":2337:2425   */\n      mstore\n        /* \"#utility.yul\":2444:2448   */\n      0x21\n        /* \"#utility.yul\":2441:2442   */\n      0x04\n        /* \"#utility.yul\":2434:2449   */\n      mstore\n        /* \"#utility.yul\":2468:2472   */\n      0x24\n        /* \"#utility.yul\":2465:2466   */\n      0x00\n        /* \"#utility.yul\":2458:2473   */\n      revert\n        /* \"#utility.yul\":2485:2608   */\n    tag_73:\n        /* \"#utility.yul\":2576:2577   */\n      0x03\n        /* \"#utility.yul\":2569:2574   */\n      dup2\n        /* \"#utility.yul\":2566:2578   */\n      lt\n        /* \"#utility.yul\":2556:2602   */\n      tag_136\n      jumpi\n        /* \"#utility.yul\":2582:2600   */\n      tag_137\n      tag_49\n      jump\t// in\n    tag_137:\n        /* \"#utility.yul\":2556:2602   */\n    tag_136:\n        /* \"#utility.yul\":2485:2608   */\n      pop\n      jump\t// out\n        /* \"#utility.yul\":2614:2761   */\n    tag_74:\n        /* \"#utility.yul\":2669:2676   */\n      0x00\n        /* \"#utility.yul\":2698:2703   */\n      dup2\n        /* \"#utility.yul\":2687:2703   */\n      swap1\n      pop\n        /* \"#utility.yul\":2704:2755   */\n      tag_139\n        /* \"#utility.yul\":2749:2754   */\n      dup3\n        /* \"#utility.yul\":2704:2755   */\n      tag_73\n      jump\t// in\n    tag_139:\n        /* \"#utility.yul\":2614:2761   */\n      swap2\n      swap1\n      pop\n      jump\t// out\n        /* \"#utility.yul\":2767:2914   */\n    tag_75:\n        /* \"#utility.yul\":2833:2842   */\n      0x00\n        /* \"#utility.yul\":2866:2908   */\n      tag_141\n        /* \"#utility.yul\":2902:2907   */\n      dup3\n        /* \"#utility.yul\":2866:2908   */\n      tag_74\n      jump\t// in\n    tag_141:\n        /* \"#utility.yul\":2853:2908   */\n      swap1\n      pop\n        /* \"#utility.yul\":2767:2914   */\n      swap2\n      swap1\n      pop\n      jump\t// out\n        /* \"#utility.yul\":2920:3083   */\n    tag_76:\n        /* \"#utility.yul\":3023:3076   */\n      tag_143\n        /* \"#utility.yul\":3070:3075   */\n      dup2\n        /* \"#utility.yul\":3023:3076   */\n      tag_75\n      jump\t// in\n    tag_143:\n        /* \"#utility.yul\":3018:3021   */\n      dup3\n        /* \"#utility.yul\":3011:3077   */\n      mstore\n        /* \"#utility.yul\":2920:3083   */\n      pop\n      pop\n      jump\t// out\n        /* \"#utility.yul\":3089:3179   */\n    tag_77:\n        /* \"#utility.yul\":3123:3130   */\n      0x00\n        /* \"#utility.yul\":3166:3171   */\n      dup2\n        /* \"#utility.yul\":3159:3172   */\n      iszero\n        /* \"#utility.yul\":3152:3173   */\n      iszero\n        /* \"#utility.yul\":3141:3173   */\n      swap1\n      pop\n        /* \"#utility.yul\":3089:3179   */\n      swap2\n      swap1\n      pop\n      jump\t// out\n        /* \"#utility.yul\":3185:3294   */\n    tag_78:\n        /* \"#utility.yul\":3266:3287   */\n      tag_146\n        /* \"#utility.yul\":3281:3286   */\n      dup2\n        /* \"#utility.yul\":3266:3287   */\n      tag_77\n      jump\t// in\n    tag_146:\n        /* \"#utility.yul\":3261:3264   */\n      dup3\n        /* \"#utility.yul\":3254:3288   */\n      mstore\n        /* \"#utility.yul\":3185:3294   */\n      pop\n      pop\n      jump\t// out\n        /* \"#utility.yul\":3300:4075   */\n    tag_17:\n        /* \"#utility.yul\":3535:3539   */\n      0x00\n        /* \"#utility.yul\":3573:3576   */\n      0xa0\n        /* \"#utility.yul\":3562:3571   */\n      dup3\n        /* \"#utility.yul\":3558:3577   */\n      add\n        /* \"#utility.yul\":3550:3577   */\n      swap1\n      pop\n        /* \"#utility.yul\":3587:3658   */\n      tag_148\n        /* \"#utility.yul\":3655:3656   */\n      0x00\n        /* \"#utility.yul\":3644:3653   */\n      dup4\n        /* \"#utility.yul\":3640:3657   */\n      add\n        /* \"#utility.yul\":3631:3637   */\n      dup9\n        /* \"#utility.yul\":3587:3658   */\n      tag_67\n      jump\t// in\n    tag_148:\n        /* \"#utility.yul\":3705:3714   */\n      dup2\n        /* \"#utility.yul\":3699:3703   */\n      dup2\n        /* \"#utility.yul\":3695:3715   */\n      sub\n        /* \"#utility.yul\":3690:3692   */\n      0x20\n        /* \"#utility.yul\":3679:3688   */\n      dup4\n        /* \"#utility.yul\":3675:3693   */\n      add\n        /* \"#utility.yul\":3668:3716   */\n      mstore\n        /* \"#utility.yul\":3733:3811   */\n      tag_149\n        /* \"#utility.yul\":3806:3810   */\n      dup2\n        /* \"#utility.yul\":3797:3803   */\n      dup8\n        /* \"#utility.yul\":3733:3811   */\n      tag_72\n      jump\t// in\n    tag_149:\n        /* \"#utility.yul\":3725:3811   */\n      swap1\n      pop\n        /* \"#utility.yul\":3821:3893   */\n      tag_150\n        /* \"#utility.yul\":3889:3891   */\n      0x40\n        /* \"#utility.yul\":3878:3887   */\n      dup4\n        /* \"#utility.yul\":3874:3892   */\n      add\n        /* \"#utility.yul\":3865:3871   */\n      dup7\n        /* \"#utility.yul\":3821:3893   */\n      tag_67\n      jump\t// in\n    tag_150:\n        /* \"#utility.yul\":3903:3991   */\n      tag_151\n        /* \"#utility.yul\":3987:3989   */\n      0x60\n        /* \"#utility.yul\":3976:3985   */\n      dup4\n        /* \"#utility.yul\":3972:3990   */\n      add\n        /* \"#utility.yul\":3963:3969   */\n      dup6\n        /* \"#utility.yul\":3903:3991   */\n      tag_76\n      jump\t// in\n    tag_151:\n        /* \"#utility.yul\":4001:4068   */\n      tag_152\n        /* \"#utility.yul\":4063:4066   */\n      0x80\n        /* \"#utility.yul\":4052:4061   */\n      dup4\n        /* \"#utility.yul\":4048:4067   */\n      add\n        /* \"#utility.yul\":4039:4045   */\n      dup5\n        /* \"#utility.yul\":4001:4068   */\n      tag_78\n      jump\t// in\n    tag_152:\n        /* \"#utility.yul\":3300:4075   */\n      swap7\n      swap6\n      pop\n      pop\n      pop\n      pop\n      pop\n      pop\n      jump\t// out\n        /* \"#utility.yul\":4081:4291   */\n    tag_22:\n        /* \"#utility.yul\":4168:4172   */\n      0x00\n        /* \"#utility.yul\":4206:4208   */\n      0x20\n        /* \"#utility.yul\":4195:4204   */\n      dup3\n        /* \"#utility.yul\":4191:4209   */\n      add\n        /* \"#utility.yul\":4183:4209   */\n      swap1\n      pop\n        /* \"#utility.yul\":4219:4284   */\n      tag_154\n        /* \"#utility.yul\":4281:4282   */\n      0x00\n        /* \"#utility.yul\":4270:4279   */\n      dup4\n        /* \"#utility.yul\":4266:4283   */\n      add\n        /* \"#utility.yul\":4257:4263   */\n      dup5\n        /* \"#utility.yul\":4219:4284   */\n      tag_78\n      jump\t// in\n    tag_154:\n        /* \"#utility.yul\":4081:4291   */\n      swap3\n      swap2\n      pop\n      pop\n      jump\t// out\n        /* \"#utility.yul\":4297:4414   */\n    tag_79:\n        /* \"#utility.yul\":4406:4407   */\n      0x00\n        /* \"#utility.yul\":4403:4404   */\n      0x00\n        /* \"#utility.yul\":4396:4408   */\n      revert\n        /* \"#utility.yul\":4420:4537   */\n    tag_80:\n        /* \"#utility.yul\":4529:4530   */\n      0x00\n        /* \"#utility.yul\":4526:4527   */\n      0x00\n        /* \"#utility.yul\":4519:4531   */\n      revert\n        /* \"#utility.yul\":4543:4723   */\n    tag_81:\n        /* \"#utility.yul\":4591:4668   */\n      0x4e487b7100000000000000000000000000000000000000000000000000000000\n        /* \"#utility.yul\":4588:4589   */\n      0x00\n        /* \"#utility.yul\":4581:4669   */\n      mstore\n        /* \"#utility.yul\":4688:4692   */\n      0x41\n        /* \"#utility.yul\":4685:4686   */\n      0x04\n        /* \"#utility.yul\":4678:4693   */\n      mstore\n        /* \"#utility.yul\":4712:4716   */\n      0x24\n        /* \"#utility.yul\":4709:4710   */\n      0x00\n        /* \"#utility.yul\":4702:4717   */\n      revert\n        /* \"#utility.yul\":4729:5010   */\n    tag_82:\n        /* \"#utility.yul\":4812:4839   */\n      tag_159\n        /* \"#utility.yul\":4834:4838   */\n      dup3\n        /* \"#utility.yul\":4812:4839   */\n      tag_71\n      jump\t// in\n    tag_159:\n        /* \"#utility.yul\":4804:4810   */\n      dup2\n        /* \"#utility.yul\":4800:4840   */\n      add\n        /* \"#utility.yul\":4942:4948   */\n      dup2\n        /* \"#utility.yul\":4930:4940   */\n      dup2\n        /* \"#utility.yul\":4927:4949   */\n      lt\n        /* \"#utility.yul\":4906:4924   */\n      0xffffffffffffffff\n        /* \"#utility.yul\":4894:4904   */\n      dup3\n        /* \"#utility.yul\":4891:4925   */\n      gt\n        /* \"#utility.yul\":4888:4950   */\n      or\n        /* \"#utility.yul\":4885:4973   */\n      iszero\n      tag_160\n      jumpi\n        /* \"#utility.yul\":4953:4971   */\n      tag_161\n      tag_81\n      jump\t// in\n    tag_161:\n        /* \"#utility.yul\":4885:4973   */\n    tag_160:\n        /* \"#utility.yul\":4993:5003   */\n      dup1\n        /* \"#utility.yul\":4989:4991   */\n      0x40\n        /* \"#utility.yul\":4982:5004   */\n      mstore\n        /* \"#utility.yul\":4772:5010   */\n      pop\n        /* \"#utility.yul\":4729:5010   */\n      pop\n      pop\n      jump\t// out\n        /* \"#utility.yul\":5016:5145   */\n    tag_83:\n        /* \"#utility.yul\":5050:5056   */\n      0x00\n        /* \"#utility.yul\":5077:5097   */\n      tag_163\n      tag_59\n      jump\t// in\n    tag_163:\n        /* \"#utility.yul\":5067:5097   */\n      swap1\n      pop\n        /* \"#utility.yul\":5106:5139   */\n      tag_164\n        /* \"#utility.yul\":5134:5138   */\n      dup3\n        /* \"#utility.yul\":5126:5132   */\n      dup3\n        /* \"#utility.yul\":5106:5139   */\n      tag_82\n      jump\t// in\n    tag_164:\n        /* \"#utility.yul\":5016:5145   */\n      swap2\n      swap1\n      pop\n      jump\t// out\n        /* \"#utility.yul\":5151:5459   */\n    tag_84:\n        /* \"#utility.yul\":5213:5217   */\n      0x00\n        /* \"#utility.yul\":5303:5321   */\n      0xffffffffffffffff\n        /* \"#utility.yul\":5295:5301   */\n      dup3\n        /* \"#utility.yul\":5292:5322   */\n      gt\n        /* \"#utility.yul\":5289:5345   */\n      iszero\n      tag_166\n      jumpi\n        /* \"#utility.yul\":5325:5343   */\n      tag_167\n      tag_81\n      jump\t// in\n    tag_167:\n        /* \"#utility.yul\":5289:5345   */\n    tag_166:\n        /* \"#utility.yul\":5363:5392   */\n      tag_168\n        /* \"#utility.yul\":5385:5391   */\n      dup3\n        /* \"#utility.yul\":5363:5392   */\n      tag_71\n      jump\t// in\n    tag_168:\n        /* \"#utility.yul\":5355:5392   */\n      swap1\n      pop\n        /* \"#utility.yul\":5447:5451   */\n      0x20\n        /* \"#utility.yul\":5441:5445   */\n      dup2\n        /* \"#utility.yul\":5437:5452   */\n      add\n        /* \"#utility.yul\":5429:5452   */\n      swap1\n      pop\n        /* \"#utility.yul\":5151:5459   */\n      swap2\n      swap1\n      pop\n      jump\t// out\n        /* \"#utility.yul\":5465:5613   */\n    tag_85:\n        /* \"#utility.yul\":5563:5569   */\n      dup3\n        /* \"#utility.yul\":5558:5561   */\n      dup2\n        /* \"#utility.yul\":5553:5556   */\n      dup4\n        /* \"#utility.yul\":5540:5570   */\n      calldatacopy\n        /* \"#utility.yul\":5604:5605   */\n      0x00\n        /* \"#utility.yul\":5595:5601   */\n      dup4\n        /* \"#utility.yul\":5590:5593   */\n      dup4\n        /* \"#utility.yul\":5586:5602   */\n      add\n        /* \"#utility.yul\":5579:5606   */\n      mstore\n        /* \"#utility.yul\":5465:5613   */\n      pop\n      pop\n      pop\n      jump\t// out\n        /* \"#utility.yul\":5619:6044   */\n    tag_86:\n        /* \"#utility.yul\":5697:5702   */\n      0x00\n        /* \"#utility.yul\":5722:5788   */\n      tag_171\n        /* \"#utility.yul\":5738:5787   */\n      tag_172\n        /* \"#utility.yul\":5780:5786   */\n      dup5\n        /* \"#utility.yul\":5738:5787   */\n      tag_84\n      jump\t// in\n    tag_172:\n        /* \"#utility.yul\":5722:5788   */\n      tag_83\n      jump\t// in\n    tag_171:\n        /* \"#utility.yul\":5713:5788   */\n      swap1\n      pop\n        /* \"#utility.yul\":5811:5817   */\n      dup3\n        /* \"#utility.yul\":5804:5809   */\n      dup2\n        /* \"#utility.yul\":5797:5818   */\n      mstore\n        /* \"#utility.yul\":5849:5853   */\n      0x20\n        /* \"#utility.yul\":5842:5847   */\n      dup2\n        /* \"#utility.yul\":5838:5854   */\n      add\n        /* \"#utility.yul\":5887:5890   */\n      dup5\n        /* \"#utility.yul\":5878:5884   */\n      dup5\n        /* \"#utility.yul\":5873:5876   */\n      dup5\n        /* \"#utility.yul\":5869:5885   */\n      add\n        /* \"#utility.yul\":5866:5891   */\n      gt\n        /* \"#utility.yul\":5863:5975   */\n      iszero\n      tag_173\n      jumpi\n        /* \"#utility.yul\":5894:5973   */\n      tag_174\n      tag_80\n      jump\t// in\n    tag_174:\n        /* \"#utility.yul\":5863:5975   */\n    tag_173:\n        /* \"#utility.yul\":5984:6038   */\n      tag_175\n        /* \"#utility.yul\":6031:6037   */\n      dup5\n        /* \"#utility.yul\":6026:6029   */\n      dup3\n        /* \"#utility.yul\":6021:6024   */\n      dup6\n        /* \"#utility.yul\":5984:6038   */\n      tag_85\n      jump\t// in\n    tag_175:\n        /* \"#utility.yul\":5703:6044   */\n      pop\n        /* \"#utility.yul\":5619:6044   */\n      swap4\n      swap3\n      pop\n      pop\n      pop\n      jump\t// out\n        /* \"#utility.yul\":6064:6404   */\n    tag_87:\n        /* \"#utility.yul\":6120:6125   */\n      0x00\n        /* \"#utility.yul\":6169:6172   */\n      dup3\n        /* \"#utility.yul\":6162:6166   */\n      0x1f\n        /* \"#utility.yul\":6154:6160   */\n      dup4\n        /* \"#utility.yul\":6150:6167   */\n      add\n        /* \"#utility.yul\":6146:6173   */\n      slt\n        /* \"#utility.yul\":6136:6258   */\n      tag_177\n      jumpi\n        /* \"#utility.yul\":6177:6256   */\n      tag_178\n      tag_79\n      jump\t// in\n    tag_178:\n        /* \"#utility.yul\":6136:6258   */\n    tag_177:\n        /* \"#utility.yul\":6294:6300   */\n      dup2\n        /* \"#utility.yul\":6281:6301   */\n      calldataload\n        /* \"#utility.yul\":6319:6398   */\n      tag_179\n        /* \"#utility.yul\":6394:6397   */\n      dup5\n        /* \"#utility.yul\":6386:6392   */\n      dup3\n        /* \"#utility.yul\":6379:6383   */\n      0x20\n        /* \"#utility.yul\":6371:6377   */\n      dup7\n        /* \"#utility.yul\":6367:6384   */\n      add\n        /* \"#utility.yul\":6319:6398   */\n      tag_86\n      jump\t// in\n    tag_179:\n        /* \"#utility.yul\":6310:6398   */\n      swap2\n      pop\n        /* \"#utility.yul\":6126:6404   */\n      pop\n        /* \"#utility.yul\":6064:6404   */\n      swap3\n      swap2\n      pop\n      pop\n      jump\t// out\n        /* \"#utility.yul\":6410:7064   */\n    tag_25:\n        /* \"#utility.yul\":6488:6494   */\n      0x00\n        /* \"#utility.yul\":6496:6502   */\n      0x00\n        /* \"#utility.yul\":6545:6547   */\n      0x40\n        /* \"#utility.yul\":6533:6542   */\n      dup4\n        /* \"#utility.yul\":6524:6531   */\n      dup6\n        /* \"#utility.yul\":6520:6543   */\n      sub\n        /* \"#utility.yul\":6516:6548   */\n      slt\n        /* \"#utility.yul\":6513:6632   */\n      iszero\n      tag_181\n      jumpi\n        /* \"#utility.yul\":6551:6630   */\n      tag_182\n      tag_60\n      jump\t// in\n    tag_182:\n        /* \"#utility.yul\":6513:6632   */\n    tag_181:\n        /* \"#utility.yul\":6671:6672   */\n      0x00\n        /* \"#utility.yul\":6696:6749   */\n      tag_183\n        /* \"#utility.yul\":6741:6748   */\n      dup6\n        /* \"#utility.yul\":6732:6738   */\n      dup3\n        /* \"#utility.yul\":6721:6730   */\n      dup7\n        /* \"#utility.yul\":6717:6739   */\n      add\n        /* \"#utility.yul\":6696:6749   */\n      tag_65\n      jump\t// in\n    tag_183:\n        /* \"#utility.yul\":6686:6749   */\n      swap3\n      pop\n        /* \"#utility.yul\":6642:6759   */\n      pop\n        /* \"#utility.yul\":6826:6828   */\n      0x20\n        /* \"#utility.yul\":6815:6824   */\n      dup4\n        /* \"#utility.yul\":6811:6829   */\n      add\n        /* \"#utility.yul\":6798:6830   */\n      calldataload\n        /* \"#utility.yul\":6857:6875   */\n      0xffffffffffffffff\n        /* \"#utility.yul\":6849:6855   */\n      dup2\n        /* \"#utility.yul\":6846:6876   */\n      gt\n        /* \"#utility.yul\":6843:6960   */\n      iszero\n      tag_184\n      jumpi\n        /* \"#utility.yul\":6879:6958   */\n      tag_185\n      tag_61\n      jump\t// in\n    tag_185:\n        /* \"#utility.yul\":6843:6960   */\n    tag_184:\n        /* \"#utility.yul\":6984:7047   */\n      tag_186\n        /* \"#utility.yul\":7039:7046   */\n      dup6\n        /* \"#utility.yul\":7030:7036   */\n      dup3\n        /* \"#utility.yul\":7019:7028   */\n      dup7\n        /* \"#utility.yul\":7015:7037   */\n      add\n        /* \"#utility.yul\":6984:7047   */\n      tag_87\n      jump\t// in\n    tag_186:\n        /* \"#utility.yul\":6974:7047   */\n      swap2\n      pop\n        /* \"#utility.yul\":6769:7057   */\n      pop\n        /* \"#utility.yul\":6410:7064   */\n      swap3\n      pop\n      swap3\n      swap1\n      pop\n      jump\t// out\n        /* \"#utility.yul\":7070:7292   */\n    tag_30:\n        /* \"#utility.yul\":7163:7167   */\n      0x00\n        /* \"#utility.yul\":7201:7203   */\n      0x20\n        /* \"#utility.yul\":7190:7199   */\n      dup3\n        /* \"#utility.yul\":7186:7204   */\n      add\n        /* \"#utility.yul\":7178:7204   */\n      swap1\n      pop\n        /* \"#utility.yul\":7214:7285   */\n      tag_188\n        /* \"#utility.yul\":7282:7283   */\n      0x00\n        /* \"#utility.yul\":7271:7280   */\n      dup4\n        /* \"#utility.yul\":7267:7284   */\n      add\n        /* \"#utility.yul\":7258:7264   */\n      dup5\n        /* \"#utility.yul\":7214:7285   */\n      tag_67\n      jump\t// in\n    tag_188:\n        /* \"#utility.yul\":7070:7292   */\n      swap3\n      swap2\n      pop\n      pop\n      jump\t// out\n        /* \"#utility.yul\":7298:7478   */\n    tag_88:\n        /* \"#utility.yul\":7346:7423   */\n      0x4e487b7100000000000000000000000000000000000000000000000000000000\n        /* \"#utility.yul\":7343:7344   */\n      0x00\n        /* \"#utility.yul\":7336:7424   */\n      mstore\n        /* \"#utility.yul\":7443:7447   */\n      0x22\n        /* \"#utility.yul\":7440:7441   */\n      0x04\n        /* \"#utility.yul\":7433:7448   */\n      mstore\n        /* \"#utility.yul\":7467:7471   */\n      0x24\n        /* \"#utility.yul\":7464:7465   */\n      0x00\n        /* \"#utility.yul\":7457:7472   */\n      revert\n        /* \"#utility.yul\":7484:7804   */\n    tag_37:\n        /* \"#utility.yul\":7528:7534   */\n      0x00\n        /* \"#utility.yul\":7565:7566   */\n      0x02\n        /* \"#utility.yul\":7559:7563   */\n      dup3\n        /* \"#utility.yul\":7555:7567   */\n      div\n        /* \"#utility.yul\":7545:7567   */\n      swap1\n      pop\n        /* \"#utility.yul\":7612:7613   */\n      0x01\n        /* \"#utility.yul\":7606:7610   */\n      dup3\n        /* \"#utility.yul\":7602:7614   */\n      and\n        /* \"#utility.yul\":7633:7651   */\n      dup1\n        /* \"#utility.yul\":7623:7704   */\n      tag_191\n      jumpi\n        /* \"#utility.yul\":7689:7693   */\n      0x7f\n        /* \"#utility.yul\":7681:7687   */\n      dup3\n        /* \"#utility.yul\":7677:7694   */\n      and\n        /* \"#utility.yul\":7667:7694   */\n      swap2\n      pop\n        /* \"#utility.yul\":7623:7704   */\n    tag_191:\n        /* \"#utility.yul\":7751:7753   */\n      0x20\n        /* \"#utility.yul\":7743:7749   */\n      dup3\n        /* \"#utility.yul\":7740:7754   */\n      lt\n        /* \"#utility.yul\":7720:7738   */\n      dup2\n        /* \"#utility.yul\":7717:7755   */\n      sub\n        /* \"#utility.yul\":7714:7798   */\n      tag_192\n      jumpi\n        /* \"#utility.yul\":7770:7788   */\n      tag_193\n      tag_88\n      jump\t// in\n    tag_193:\n        /* \"#utility.yul\":7714:7798   */\n    tag_192:\n        /* \"#utility.yul\":7535:7804   */\n      pop\n        /* \"#utility.yul\":7484:7804   */\n      swap2\n      swap1\n      pop\n      jump\t// out\n        /* \"#utility.yul\":7810:7951   */\n    tag_89:\n        /* \"#utility.yul\":7859:7863   */\n      0x00\n        /* \"#utility.yul\":7882:7885   */\n      dup2\n        /* \"#utility.yul\":7874:7885   */\n      swap1\n      pop\n        /* \"#utility.yul\":7905:7908   */\n      dup2\n        /* \"#utility.yul\":7902:7903   */\n      0x00\n        /* \"#utility.yul\":7895:7909   */\n      mstore\n        /* \"#utility.yul\":7939:7943   */\n      0x20\n        /* \"#utility.yul\":7936:7937   */\n      0x00\n        /* \"#utility.yul\":7926:7944   */\n      keccak256\n        /* \"#utility.yul\":7918:7944   */\n      swap1\n      pop\n        /* \"#utility.yul\":7810:7951   */\n      swap2\n      swap1\n      pop\n      jump\t// out\n        /* \"#utility.yul\":7957:8050   */\n    tag_90:\n        /* \"#utility.yul\":7994:8000   */\n      0x00\n        /* \"#utility.yul\":8041:8043   */\n      0x20\n        /* \"#utility.yul\":8036:8038   */\n      0x1f\n        /* \"#utility.yul\":8029:8034   */\n      dup4\n        /* \"#utility.yul\":8025:8039   */\n      add\n        /* \"#utility.yul\":8021:8044   */\n      div\n        /* \"#utility.yul\":8011:8044   */\n      swap1\n      pop\n        /* \"#utility.yul\":7957:8050   */\n      swap2\n      swap1\n      pop\n      jump\t// out\n        /* \"#utility.yul\":8056:8163   */\n    tag_91:\n        /* \"#utility.yul\":8100:8108   */\n      0x00\n        /* \"#utility.yul\":8150:8155   */\n      dup3\n        /* \"#utility.yul\":8144:8148   */\n      dup3\n        /* \"#utility.yul\":8140:8156   */\n      shl\n        /* \"#utility.yul\":8119:8156   */\n      swap1\n      pop\n        /* \"#utility.yul\":8056:8163   */\n      swap3\n      swap2\n      pop\n      pop\n      jump\t// out\n        /* \"#utility.yul\":8169:8562   */\n    tag_92:\n        /* \"#utility.yul\":8238:8244   */\n      0x00\n        /* \"#utility.yul\":8288:8289   */\n      0x08\n        /* \"#utility.yul\":8276:8286   */\n      dup4\n        /* \"#utility.yul\":8272:8290   */\n      mul\n        /* \"#utility.yul\":8311:8408   */\n      tag_198\n        /* \"#utility.yul\":8341:8407   */\n      0xffffffffffffffffffffffffffffffffffffffffffffffffffffffffffffffff\n        /* \"#utility.yul\":8330:8339   */\n      dup3\n        /* \"#utility.yul\":8311:8408   */\n      tag_91\n      jump\t// in\n    tag_198:\n        /* \"#utility.yul\":8429:8468   */\n      tag_199\n        /* \"#utility.yul\":8459:8467   */\n      dup7\n        /* \"#utility.yul\":8448:8457   */\n      dup4\n        /* \"#utility.yul\":8429:8468   */\n      tag_91\n      jump\t// in\n    tag_199:\n        /* \"#utility.yul\":8417:8468   */\n      swap6\n      pop\n        /* \"#utility.yul\":8501:8505   */\n      dup1\n        /* \"#utility.yul\":8497:8506   */\n      not\n        /* \"#utility.yul\":8490:8495   */\n      dup5\n        /* \"#utility.yul\":8486:8507   */\n      and\n        /* \"#utility.yul\":8477:8507   */\n      swap4\n      pop\n        /* \"#utility.yul\":8550:8554   */\n      dup1\n        /* \"#utility.yul\":8540:8548   */\n      dup7\n        /* \"#utility.yul\":8536:8555   */\n      and\n        /* \"#utility.yul\":8529:8534   */\n      dup5\n        /* \"#utility.yul\":8526:8556   */\n      or\n        /* \"#utility.yul\":8516:8556   */\n      swap3\n      pop\n        /* \"#utility.yul\":8245:8562   */\n      pop\n      pop\n        /* \"#utility.yul\":8169:8562   */\n      swap4\n      swap3\n      pop\n      pop\n      pop\n      jump\t// out\n        /* \"#utility.yul\":8568:8628   */\n    tag_93:\n        /* \"#utility.yul\":8596:8599   */\n      0x00\n        /* \"#utility.yul\":8617:8622   */\n      dup2\n        /* \"#utility.yul\":8610:8622   */\n      swap1\n      pop\n        /* \"#utility.yul\":8568:8628   */\n      swap2\n      swap1\n      pop\n      jump\t// out\n        /* \"#utility.yul\":8634:8776   */\n    tag_94:\n        /* \"#utility.yul\":8684:8693   */\n      0x00\n        /* \"#utility.yul\":8717:8770   */\n      tag_202\n        /* \"#utility.yul\":8735:8769   */\n      tag_203\n        /* \"#utility.yul\":8744:8768   */\n      tag_204\n        /* \"#utility.yul\":8762:8767   */\n      dup5\n        /* \"#utility.yul\":8744:8768   */\n      tag_66\n      jump\t// in\n    tag_204:\n        /* \"#utility.yul\":8735:8769   */\n      tag_93\n      jump\t// in\n    tag_203:\n        /* \"#utility.yul\":8717:8770   */\n      tag_66\n      jump\t// in\n    tag_202:\n        /* \"#utility.yul\":8704:8770   */\n      swap1\n      pop\n        /* \"#utility.yul\":8634:8776   */\n      swap2\n      swap1\n      pop\n      jump\t// out\n        /* \"#utility.yul\":8782:8857   */\n    tag_95:\n        /* \"#utility.yul\":8825:8828   */\n      0x00\n        /* \"#utility.yul\":8846:8851   */\n      dup2\n        /* \"#utility.yul\":8839:8851   */\n      swap1\n      pop\n        /* \"#utility.yul\":8782:8857   */\n      swap2\n      swap1\n      pop\n      jump\t// out\n        /* \"#utility.yul\":8863:9132   */\n    tag_96:\n        /* \"#utility.yul\":8973:9012   */\n      tag_207\n        /* \"#utility.yul\":9004:9011   */\n      dup4\n        /* \"#utility.yul\":8973:9012   */\n      tag_94\n      jump\t// in\n    tag_207:\n        /* \"#utility.yul\":9034:9125   */\n      tag_208\n        /* \"#utility.yul\":9083:9124   */\n      tag_209\n        /* \"#utility.yul\":9107:9123   */\n      dup3\n        /* \"#utility.yul\":9083:9124   */\n      tag_95\n      jump\t// in\n    tag_209:\n        /* \"#utility.yul\":9075:9081   */\n      dup5\n        /* \"#utility.yul\":9068:9072   */\n      dup5\n        /* \"#utility.yul\":9062:9073   */\n      sload\n        /* \"#utility.yul\":9034:9125   */\n      tag_92\n      jump\t// in\n    tag_208:\n        /* \"#utility.yul\":9028:9032   */\n      dup3\n        /* \"#utility.yul\":9021:9126   */\n      sstore\n        /* \"#utility.yul\":8939:9132   */\n      pop\n        /* \"#utility.yul\":8863:9132   */\n      pop\n      pop\n      pop\n      jump\t// out\n        /* \"#utility.yul\":9138:9211   */\n    tag_97:\n        /* \"#utility.yul\":9183:9186   */\n      0x00\n        /* \"#utility.yul\":9204:9205   */\n      0x00\n        /* \"#utility.yul\":9197:9205   */\n      swap1\n      pop\n        /* \"#utility.yul\":9138:9211   */\n      swap1\n      jump\t// out\n        /* \"#utility.yul\":9217:9406   */\n    tag_98:\n        /* \"#utility.yul\":9294:9326   */\n      tag_212\n      tag_97\n      jump\t// in\n    tag_212:\n        /* \"#utility.yul\":9335:9400   */\n      tag_213\n        /* \"#utility.yul\":9393:9399   */\n      dup2\n        /* \"#utility.yul\":9385:9391   */\n      dup5\n        /* \"#utility.yul\":9379:9383   */\n      dup5\n        /* \"#utility.yul\":9335:9400   */\n      tag_96\n      jump\t// in\n    tag_213:\n        /* \"#utility.yul\":9270:9406   */\n      pop\n        /* \"#utility.yul\":9217:9406   */\n      pop\n      pop\n      jump\t// out\n        /* \"#utility.yul\":9412:9598   */\n    tag_99:\n        /* \"#utility.yul\":9472:9592   */\n    tag_215:\n        /* \"#utility.yul\":9489:9492   */\n      dup2\n        /* \"#utility.yul\":9482:9487   */\n      dup2\n        /* \"#utility.yul\":9479:9493   */\n      lt\n        /* \"#utility.yul\":9472:9592   */\n      iszero\n      tag_217\n      jumpi\n        /* \"#utility.yul\":9543:9582   */\n      tag_218\n        /* \"#utility.yul\":9580:9581   */\n      0x00\n        /* \"#utility.yul\":9573:9578   */\n      dup3\n        /* \"#utility.yul\":9543:9582   */\n      tag_98\n      jump\t// in\n    tag_218:\n        /* \"#utility.yul\":9516:9517   */\n      0x01\n        /* \"#utility.yul\":9509:9514   */\n      dup2\n        /* \"#utility.yul\":9505:9518   */\n      add\n        /* \"#utility.yul\":9496:9518   */\n      swap1\n      pop\n        /* \"#utility.yul\":9472:9592   */\n      jump(tag_215)\n    tag_217:\n        /* \"#utility.yul\":9412:9598   */\n      pop\n      pop\n      jump\t// out\n        /* \"#utility.yul\":9604:10147   */\n    tag_100:\n        /* \"#utility.yul\":9705:9707   */\n      0x1f\n        /* \"#utility.yul\":9700:9703   */\n      dup3\n        /* \"#utility.yul\":9697:9708   */\n      gt\n        /* \"#utility.yul\":9694:10140   */\n      iszero\n      tag_220\n      jumpi\n        /* \"#utility.yul\":9739:9777   */\n      tag_221\n        /* \"#utility.yul\":9771:9776   */\n      dup2\n        /* \"#utility.yul\":9739:9777   */\n      tag_89\n      jump\t// in\n    tag_221:\n        /* \"#utility.yul\":9823:9852   */\n      tag_222\n        /* \"#utility.yul\":9841:9851   */\n      dup5\n        /* \"#utility.yul\":9823:9852   */\n      tag_90\n      jump\t// in\n    tag_222:\n        /* \"#utility.yul\":9813:9821   */\n      dup2\n        /* \"#utility.yul\":9809:9853   */\n      add\n        /* \"#utility.yul\":10006:10008   */\n      0x20\n        /* \"#utility.yul\":9994:10004   */\n      dup6\n        /* \"#utility.yul\":9991:10009   */\n      lt\n        /* \"#utility.yul\":9988:10037   */\n      iszero\n      tag_223\n      jumpi\n        /* \"#utility.yul\":10027:10035   */\n      dup2\n        /* \"#utility.yul\":10012:10035   */\n      swap1\n      pop\n        /* \"#utility.yul\":9988:10037   */\n    tag_223:\n        /* \"#utility.yul\":10050:10130   */\n      tag_224\n        /* \"#utility.yul\":10106:10128   */\n      tag_225\n        /* \"#utility.yul\":10124:10127   */\n      dup6\n        /* \"#utility.yul\":10106:10128   */\n      tag_90\n      jump\t// in\n    tag_225:\n        /* \"#utility.yul\":10096:10104   */\n      dup4\n        /* \"#utility.yul\":10092:10129   */\n      add\n        /* \"#utility.yul\":10079:10090   */\n      dup3\n        /* \"#utility.yul\":10050:10130   */\n      tag_99\n      jump\t// in\n    tag_224:\n        /* \"#utility.yul\":9709:10140   */\n      pop\n      pop\n        /* \"#utility.yul\":9694:10140   */\n    tag_220:\n        /* \"#utility.yul\":9604:10147   */\n      pop\n      pop\n      pop\n      jump\t// out\n        /* \"#utility.yul\":10153:10270   */\n    tag_101:\n        /* \"#utility.yul\":10207:10215   */\n      0x00\n        /* \"#utility.yul\":10257:10262   */\n      dup3\n        /* \"#utility.yul\":10251:10255   */\n      dup3\n        /* \"#utility.yul\":10247:10263   */\n      shr\n        /* \"#utility.yul\":10226:10263   */\n      swap1\n      pop\n        /* \"#utility.yul\":10153:10270   */\n      swap3\n      swap2\n      pop\n      pop\n      jump\t// out\n        /* \"#utility.yul\":10276:10445   */\n    tag_102:\n        /* \"#utility.yul\":10320:10326   */\n      0x00\n        /* \"#utility.yul\":10353:10404   */\n      tag_228\n        /* \"#utility.yul\":10401:10402   */\n      0x00\n        /* \"#utility.yul\":10397:10403   */\n      not\n        /* \"#utility.yul\":10389:10394   */\n      dup5\n        /* \"#utility.yul\":10386:10387   */\n      0x08\n        /* \"#utility.yul\":10382:10395   */\n      mul\n        /* \"#utility.yul\":10353:10404   */\n      tag_101\n      jump\t// in\n    tag_228:\n        /* \"#utility.yul\":10349:10405   */\n      not\n        /* \"#utility.yul\":10434:10438   */\n      dup1\n        /* \"#utility.yul\":10428:10432   */\n      dup4\n        /* \"#utility.yul\":10424:10439   */\n      and\n        /* \"#utility.yul\":10414:10439   */\n      swap2\n      pop\n        /* \"#utility.yul\":10327:10445   */\n      pop\n        /* \"#utility.yul\":10276:10445   */\n      swap3\n      swap2\n      pop\n      pop\n      jump\t// out\n        /* \"#utility.yul\":10450:10745   */\n    tag_103:\n        /* \"#utility.yul\":10526:10530   */\n      0x00\n        /* \"#utility.yul\":10672:10701   */\n      tag_230\n        /* \"#utility.yul\":10697:10700   */\n      dup4\n        /* \"#utility.yul\":10691:10695   */\n      dup4\n        /* \"#utility.yul\":10672:10701   */\n      tag_102\n      jump\t// in\n    tag_230:\n        /* \"#utility.yul\":10664:10701   */\n      swap2\n      pop\n        /* \"#utility.yul\":10734:10737   */\n      dup3\n        /* \"#utility.yul\":10731:10732   */\n      0x02\n        /* \"#utility.yul\":10727:10738   */\n      mul\n        /* \"#utility.yul\":10721:10725   */\n      dup3\n        /* \"#utility.yul\":10718:10739   */\n      or\n        /* \"#utility.yul\":10710:10739   */\n      swap1\n      pop\n        /* \"#utility.yul\":10450:10745   */\n      swap3\n      swap2\n      pop\n      pop\n      jump\t// out\n        /* \"#utility.yul\":10750:12145   */\n    tag_46:\n        /* \"#utility.yul\":10867:10904   */\n      tag_232\n        /* \"#utility.yul\":10900:10903   */\n      dup3\n        /* \"#utility.yul\":10867:10904   */\n      tag_68\n      jump\t// in\n    tag_232:\n        /* \"#utility.yul\":10969:10987   */\n      0xffffffffffffffff\n        /* \"#utility.yul\":10961:10967   */\n      dup2\n        /* \"#utility.yul\":10958:10988   */\n      gt\n        /* \"#utility.yul\":10955:11011   */\n      iszero\n      tag_233\n      jumpi\n        /* \"#utility.yul\":10991:11009   */\n      tag_234\n      tag_81\n      jump\t// in\n    tag_234:\n        /* \"#utility.yul\":10955:11011   */\n    tag_233:\n        /* \"#utility.yul\":11035:11073   */\n      tag_235\n        /* \"#utility.yul\":11067:11071   */\n      dup3\n        /* \"#utility.yul\":11061:11072   */\n      sload\n        /* \"#utility.yul\":11035:11073   */\n      tag_37\n      jump\t// in\n    tag_235:\n        /* \"#utility.yul\":11120:11187   */\n      tag_236\n        /* \"#utility.yul\":11180:11186   */\n      dup3\n        /* \"#utility.yul\":11172:11178   */\n      dup3\n        /* \"#utility.yul\":11166:11170   */\n      dup6\n        /* \"#utility.yul\":11120:11187   */\n      tag_100\n      jump\t// in\n    tag_236:\n        /* \"#utility.yul\":11214:11215   */\n      0x00\n        /* \"#utility.yul\":11238:11242   */\n      0x20\n        /* \"#utility.yul\":11225:11242   */\n      swap1\n      pop\n        /* \"#utility.yul\":11270:11272   */\n      0x1f\n        /* \"#utility.yul\":11262:11268   */\n      dup4\n        /* \"#utility.yul\":11259:11273   */\n      gt\n        /* \"#utility.yul\":11287:11288   */\n      0x01\n        /* \"#utility.yul\":11282:11900   */\n      dup2\n      eq\n      tag_238\n      jumpi\n        /* \"#utility.yul\":11944:11945   */\n      0x00\n        /* \"#utility.yul\":11961:11967   */\n      dup5\n        /* \"#utility.yul\":11958:12035   */\n      iszero\n      tag_239\n      jumpi\n        /* \"#utility.yul\":12010:12019   */\n      dup3\n        /* \"#utility.yul\":12005:12008   */\n      dup8\n        /* \"#utility.yul\":12001:12020   */\n      add\n        /* \"#utility.yul\":11995:12021   */\n      mload\n        /* \"#utility.yul\":11986:12021   */\n      swap1\n      pop\n        /* \"#utility.yul\":11958:12035   */\n    tag_239:\n        /* \"#utility.yul\":12061:12128   */\n      tag_240\n        /* \"#utility.yul\":12121:12127   */\n      dup6\n        /* \"#utility.yul\":12114:12119   */\n      dup3\n        /* \"#utility.yul\":12061:12128   */\n      tag_103\n      jump\t// in\n    tag_240:\n        /* \"#utility.yul\":12055:12059   */\n      dup7\n        /* \"#utility.yul\":12048:12129   */\n      sstore\n        /* \"#utility.yul\":11917:12139   */\n      pop\n        /* \"#utility.yul\":11252:12139   */\n      jump(tag_237)\n        /* \"#utility.yul\":11282:11900   */\n    tag_238:\n        /* \"#utility.yul\":11334:11338   */\n      0x1f\n        /* \"#utility.yul\":11330:11339   */\n      not\n        /* \"#utility.yul\":11322:11328   */\n      dup5\n        /* \"#utility.yul\":11318:11340   */\n      and\n        /* \"#utility.yul\":11368:11405   */\n      tag_241\n        /* \"#utility.yul\":11400:11404   */\n      dup7\n        /* \"#utility.yul\":11368:11405   */\n      tag_89\n      jump\t// in\n    tag_241:\n        /* \"#utility.yul\":11427:11428   */\n      0x00\n        /* \"#utility.yul\":11441:11649   */\n    tag_242:\n        /* \"#utility.yul\":11455:11462   */\n      dup3\n        /* \"#utility.yul\":11452:11453   */\n      dup2\n        /* \"#utility.yul\":11449:11463   */\n      lt\n        /* \"#utility.yul\":11441:11649   */\n      iszero\n      tag_244\n      jumpi\n        /* \"#utility.yul\":11534:11543   */\n      dup5\n        /* \"#utility.yul\":11529:11532   */\n      dup10\n        /* \"#utility.yul\":11525:11544   */\n      add\n        /* \"#utility.yul\":11519:11545   */\n      mload\n        /* \"#utility.yul\":11511:11517   */\n      dup3\n        /* \"#utility.yul\":11504:11546   */\n      sstore\n        /* \"#utility.yul\":11585:11586   */\n      0x01\n        /* \"#utility.yul\":11577:11583   */\n      dup3\n        /* \"#utility.yul\":11573:11587   */\n      add\n        /* \"#utility.yul\":11563:11587   */\n      swap2\n      pop\n        /* \"#utility.yul\":11632:11634   */\n      0x20\n        /* \"#utility.yul\":11621:11630   */\n      dup6\n        /* \"#utility.yul\":11617:11635   */\n      add\n        /* \"#utility.yul\":11604:11635   */\n      swap5\n      pop\n        /* \"#utility.yul\":11478:11482   */\n      0x20\n        /* \"#utility.yul\":11475:11476   */\n      dup2\n        /* \"#utility.yul\":11471:11483   */\n      add\n        /* \"#utility.yul\":11466:11483   */\n      swap1\n      pop\n        /* \"#utility.yul\":11441:11649   */\n      jump(tag_242)\n    tag_244:\n        /* \"#utility.yul\":11677:11683   */\n      dup7\n        /* \"#utility.yul\":11668:11675   */\n      dup4\n        /* \"#utility.yul\":11665:11684   */\n      lt\n        /* \"#utility.yul\":11662:11841   */\n      iszero\n      tag_245\n      jumpi\n        /* \"#utility.yul\":11735:11744   */\n      dup5\n        /* \"#utility.yul\":11730:11733   */\n      dup10\n        /* \"#utility.yul\":11726:11745   */\n      add\n        /* \"#utility.yul\":11720:11746   */\n      mload\n        /* \"#utility.yul\":11778:11826   */\n      tag_246\n        /* \"#utility.yul\":11820:11824   */\n      0x1f\n        /* \"#utility.yul\":11812:11818   */\n      dup10\n        /* \"#utility.yul\":11808:11825   */\n      and\n        /* \"#utility.yul\":11797:11806   */\n      dup3\n        /* \"#utility.yul\":11778:11826   */\n      tag_102\n      jump\t// in\n    tag_246:\n        /* \"#utility.yul\":11770:11776   */\n      dup4\n        /* \"#utility.yul\":11763:11827   */\n      sstore\n        /* \"#utility.yul\":11685:11841   */\n      pop\n        /* \"#utility.yul\":11662:11841   */\n    tag_245:\n        /* \"#utility.yul\":11887:11888   */\n      0x01\n        /* \"#utility.yul\":11883:11884   */\n      0x02\n        /* \"#utility.yul\":11875:11881   */\n      dup9\n        /* \"#utility.yul\":11871:11885   */\n      mul\n        /* \"#utility.yul\":11867:11889   */\n      add\n        /* \"#utility.yul\":11861:11865   */\n      dup9\n        /* \"#utility.yul\":11854:11890   */\n      sstore\n        /* \"#utility.yul\":11289:11900   */\n      pop\n      pop\n      pop\n        /* \"#utility.yul\":11252:12139   */\n    tag_237:\n      pop\n        /* \"#utility.yul\":10842:12145   */\n      pop\n      pop\n      pop\n        /* \"#utility.yul\":10750:12145   */\n      pop\n      pop\n      jump\t// out\n        /* \"#utility.yul\":12175:13006   */\n    tag_104:\n        /* \"#utility.yul\":12260:12263   */\n      0x00\n        /* \"#utility.yul\":12297:12302   */\n      dup2\n        /* \"#utility.yul\":12291:12303   */\n      sload\n        /* \"#utility.yul\":12326:12362   */\n      tag_248\n        /* \"#utility.yul\":12352:12361   */\n      dup2\n        /* \"#utility.yul\":12326:12362   */\n      tag_37\n      jump\t// in\n    tag_248:\n        /* \"#utility.yul\":12378:12449   */\n      tag_249\n        /* \"#utility.yul\":12442:12448   */\n      dup2\n        /* \"#utility.yul\":12437:12440   */\n      dup7\n        /* \"#utility.yul\":12378:12449   */\n      tag_69\n      jump\t// in\n    tag_249:\n        /* \"#utility.yul\":12371:12449   */\n      swap5\n      pop\n        /* \"#utility.yul\":12480:12481   */\n      0x01\n        /* \"#utility.yul\":12469:12478   */\n      dup3\n        /* \"#utility.yul\":12465:12482   */\n      and\n        /* \"#utility.yul\":12496:12497   */\n      0x00\n        /* \"#utility.yul\":12491:12655   */\n      dup2\n      eq\n      tag_251\n      jumpi\n        /* \"#utility.yul\":12669:12670   */\n      0x01\n        /* \"#utility.yul\":12664:13000   */\n      dup2\n      eq\n      tag_252\n      jumpi\n        /* \"#utility.yul\":12458:13000   */\n      jump(tag_250)\n        /* \"#utility.yul\":12491:12655   */\n    tag_251:\n        /* \"#utility.yul\":12575:12579   */\n      0xff\n        /* \"#utility.yul\":12571:12580   */\n      not\n        /* \"#utility.yul\":12560:12569   */\n      dup4\n        /* \"#utility.yul\":12556:12581   */\n      and\n        /* \"#utility.yul\":12551:12554   */\n      dup7\n        /* \"#utility.yul\":12544:12582   */\n      mstore\n        /* \"#utility.yul\":12635:12641   */\n      dup2\n        /* \"#utility.yul\":12628:12642   */\n      iszero\n        /* \"#utility.yul\":12621:12643   */\n      iszero\n        /* \"#utility.yul\":12615:12619   */\n      0x20\n        /* \"#utility.yul\":12611:12644   */\n      mul\n        /* \"#utility.yul\":12606:12609   */\n      dup7\n        /* \"#utility.yul\":12602:12645   */\n      add\n        /* \"#utility.yul\":12595:12645   */\n      swap4\n      pop\n        /* \"#utility.yul\":12491:12655   */\n      jump(tag_250)\n        /* \"#utility.yul\":12664:13000   */\n    tag_252:\n        /* \"#utility.yul\":12731:12769   */\n      tag_253\n        /* \"#utility.yul\":12763:12768   */\n      dup6\n        /* \"#utility.yul\":12731:12769   */\n      tag_89\n      jump\t// in\n    tag_253:\n        /* \"#utility.yul\":12791:12792   */\n      0x00\n        /* \"#utility.yul\":12805:12959   */\n    tag_254:\n        /* \"#utility.yul\":12819:12825   */\n      dup4\n        /* \"#utility.yul\":12816:12817   */\n      dup2\n        /* \"#utility.yul\":12813:12826   */\n      lt\n        /* \"#utility.yul\":12805:12959   */\n      iszero\n      tag_256\n      jumpi\n        /* \"#utility.yul\":12893:12900   */\n      dup2\n        /* \"#utility.yul\":12887:12901   */\n      sload\n        /* \"#utility.yul\":12883:12884   */\n      dup2\n        /* \"#utility.yul\":12878:12881   */\n      dup10\n        /* \"#utility.yul\":12874:12885   */\n      add\n        /* \"#utility.yul\":12867:12902   */\n      mstore\n        /* \"#utility.yul\":12943:12944   */\n      0x01\n        /* \"#utility.yul\":12934:12941   */\n      dup3\n        /* \"#utility.yul\":12930:12945   */\n      add\n        /* \"#utility.yul\":12919:12945   */\n      swap2\n      pop\n        /* \"#utility.yul\":12841:12845   */\n      0x20\n        /* \"#utility.yul\":12838:12839   */\n      dup2\n        /* \"#utility.yul\":12834:12846   */\n      add\n        /* \"#utility.yul\":12829:12846   */\n      swap1\n      pop\n        /* \"#utility.yul\":12805:12959   */\n      jump(tag_254)\n    tag_256:\n        /* \"#utility.yul\":12988:12989   */\n      dup1\n        /* \"#utility.yul\":12983:12986   */\n      dup9\n        /* \"#utility.yul\":12979:12990   */\n      add\n        /* \"#utility.yul\":12972:12990   */\n      swap6\n      pop\n        /* \"#utility.yul\":12671:13000   */\n      pop\n      pop\n        /* \"#utility.yul\":12458:13000   */\n    tag_250:\n      pop\n        /* \"#utility.yul\":12264:13006   */\n      pop\n      pop\n        /* \"#utility.yul\":12175:13006   */\n      swap3\n      swap2\n      pop\n      pop\n      jump\t// out\n        /* \"#utility.yul\":13012:13429   */\n    tag_51:\n        /* \"#utility.yul\":13150:13154   */\n      0x00\n        /* \"#utility.yul\":13188:13190   */\n      0x40\n        /* \"#utility.yul\":13177:13186   */\n      dup3\n        /* \"#utility.yul\":13173:13191   */\n      add\n        /* \"#utility.yul\":13165:13191   */\n      swap1\n      pop\n        /* \"#utility.yul\":13201:13272   */\n      tag_258\n        /* \"#utility.yul\":13269:13270   */\n      0x00\n        /* \"#utility.yul\":13258:13267   */\n      dup4\n        /* \"#utility.yul\":13254:13271   */\n      add\n        /* \"#utility.yul\":13245:13251   */\n      dup6\n        /* \"#utility.yul\":13201:13272   */\n      tag_67\n      jump\t// in\n    tag_258:\n        /* \"#utility.yul\":13319:13328   */\n      dup2\n        /* \"#utility.yul\":13313:13317   */\n      dup2\n        /* \"#utility.yul\":13309:13329   */\n      sub\n        /* \"#utility.yul\":13304:13306   */\n      0x20\n        /* \"#utility.yul\":13293:13302   */\n      dup4\n        /* \"#utility.yul\":13289:13307   */\n      add\n        /* \"#utility.yul\":13282:13330   */\n      mstore\n        /* \"#utility.yul\":13347:13422   */\n      tag_259\n        /* \"#utility.yul\":13417:13421   */\n      dup2\n        /* \"#utility.yul\":13408:13414   */\n      dup5\n        /* \"#utility.yul\":13347:13422   */\n      tag_104\n      jump\t// in\n    tag_259:\n        /* \"#utility.yul\":13339:13422   */\n      swap1\n      pop\n        /* \"#utility.yul\":13012:13429   */\n      swap4\n      swap3\n      pop\n      pop\n      pop\n      jump\t// out\n        /* \"#utility.yul\":13435:13615   */\n    tag_105:\n        /* \"#utility.yul\":13483:13560   */\n      0x4e487b7100000000000000000000000000000000000000000000000000000000\n        /* \"#utility.yul\":13480:13481   */\n      0x00\n        /* \"#utility.yul\":13473:13561   */\n      mstore\n        /* \"#utility.yul\":13580:13584   */\n      0x11\n        /* \"#utility.yul\":13577:13578   */\n      0x04\n        /* \"#utility.yul\":13570:13585   */\n      mstore\n        /* \"#utility.yul\":13604:13608   */\n      0x24\n        /* \"#utility.yul\":13601:13602   */\n      0x00\n        /* \"#utility.yul\":13594:13609   */\n      revert\n        /* \"#utility.yul\":13621:13854   */\n    tag_53:\n        /* \"#utility.yul\":13660:13663   */\n      0x00\n        /* \"#utility.yul\":13683:13707   */\n      tag_262\n        /* \"#utility.yul\":13701:13706   */\n      dup3\n        /* \"#utility.yul\":13683:13707   */\n      tag_66\n      jump\t// in\n    tag_262:\n        /* \"#utility.yul\":13674:13707   */\n      swap2\n      pop\n        /* \"#utility.yul\":13729:13795   */\n      0xffffffffffffffffffffffffffffffffffffffffffffffffffffffffffffffff\n        /* \"#utility.yul\":13722:13727   */\n      dup3\n        /* \"#utility.yul\":13719:13796   */\n      sub\n        /* \"#utility.yul\":13716:13819   */\n      tag_263\n      jumpi\n        /* \"#utility.yul\":13799:13817   */\n      tag_264\n      tag_105\n      jump\t// in\n    tag_264:\n        /* \"#utility.yul\":13716:13819   */\n    tag_263:\n        /* \"#utility.yul\":13846:13847   */\n      0x01\n        /* \"#utility.yul\":13839:13844   */\n      dup3\n        /* \"#utility.yul\":13835:13848   */\n      add\n        /* \"#utility.yul\":13828:13848   */\n      swap1\n      pop\n        /* \"#utility.yul\":13621:13854   */\n      swap2\n      swap1\n      pop\n      jump\t// out\n        /* \"#utility.yul\":13860:14173   */\n    tag_58:\n        /* \"#utility.yul\":13973:13977   */\n      0x00\n        /* \"#utility.yul\":14011:14013   */\n      0x20\n        /* \"#utility.yul\":14000:14009   */\n      dup3\n        /* \"#utility.yul\":13996:14014   */\n      add\n        /* \"#utility.yul\":13988:14014   */\n      swap1\n      pop\n        /* \"#utility.yul\":14060:14069   */\n      dup2\n        /* \"#utility.yul\":14054:14058   */\n      dup2\n        /* \"#utility.yul\":14050:14070   */\n      sub\n        /* \"#utility.yul\":14046:14047   */\n      0x00\n        /* \"#utility.yul\":14035:14044   */\n      dup4\n        /* \"#utility.yul\":14031:14048   */\n      add\n        /* \"#utility.yul\":14024:14071   */\n      mstore\n        /* \"#utility.yul\":14088:14166   */\n      tag_266\n        /* \"#utility.yul\":14161:14165   */\n      dup2\n        /* \"#utility.yul\":14152:14158   */\n      dup5\n        /* \"#utility.yul\":14088:14166   */\n      tag_72\n      jump\t// in\n    tag_266:\n        /* \"#utility.yul\":14080:14166   */\n      swap1\n      pop\n        /* \"#utility.yul\":13860:14173   */\n      swap3\n      swap2\n      pop\n      pop\n      jump\t// out\n\n    auxdata: 0xa2646970667358221220ef7b6e93cfc8b90dc85ea781d143fd3fecc5921644594c8aca2f5f5140f2a15764736f6c634300081e0033\n}\n",
				"bytecode": {
					"linkReferences": {},
					"object": "6080604052600180553480156012575f5ffd5b50610d4f806100205f395ff3fe608060405234801561000f575f5ffd5b5060043610610060575f3560e01c80630b1ca49a1461006457806383fd095414610080578063a230c524146100b4578063c127c247146100e4578063cb37be9e14610100578063e83162d21461011e575b5f5ffd5b61007e600480360381019061007991906105ba565b61013a565b005b61009a600480360381019061009591906105ba565b6101d7565b6040516100ab9594939291906106fa565b60405180910390f35b6100ce60048036038101906100c991906105ba565b6102ea565b6040516100db9190610752565b60405180910390f35b6100fe60048036038101906100f99190610897565b610389565b005b6101086104a7565b60405161011591906108f1565b60405180910390f35b61013860048036038101906101339190610897565b6104b0565b005b5f5f5f8373ffffffffffffffffffffffffffffffffffffffff1673ffffffffffffffffffffffffffffffffffffffff1681526020019081526020015f2060030160016101000a81548160ff0219169083151502179055508073ffffffffffffffffffffffffffffffffffffffff167f6e76fb4c77256006d9c38ec7d82b45a8c8f3c27b1d6766fffc42dfb8de68449260405160405180910390a250565b5f60605f5f5f5f5f5f8873ffffffffffffffffffffffffffffffffffffffff1673ffffffffffffffffffffffffffffffffffffffff1681526020019081526020015f209050805f0154816001018260020154836003015f9054906101000a900460ff168460030160019054906101000a900460ff1683805461025890610937565b80601f016020809104026020016040519081016040528092919081815260200182805461028490610937565b80156102cf5780601f106102a6576101008083540402835291602001916102cf565b820191905f5260205f20905b8154815290600101906020018083116102b257829003601f168201915b50505050509350955095509550955095505091939590929450565b5f5f5f5f8473ffffffffffffffffffffffffffffffffffffffff1673ffffffffffffffffffffffffffffffffffffffff1681526020019081526020015f205f01541415801561038257505f5f8373ffffffffffffffffffffffffffffffffffffffff1673ffffffffffffffffffffffffffffffffffffffff1681526020019081526020015f2060030160019054906101000a900460ff165b9050919050565b5f5f5f8473ffffffffffffffffffffffffffffffffffffffff1673ffffffffffffffffffffffffffffffffffffffff1681526020019081526020015f209050600154815f0181905550818160010190816103e39190610b07565b505f81600201819055505f816003015f6101000a81548160ff021916908360028111156104135761041261066d565b5b021790555060018160030160016101000a81548160ff0219169083151502179055508273ffffffffffffffffffffffffffffffffffffffff167f411ca3c73320e32049030c152ebf6ec3670d7bd79481083214171dd817aebaa8825f015483600101604051610483929190610c57565b60405180910390a260015f81548092919061049d90610cb2565b9190505550505050565b5f600154905090565b805f5f8473ffffffffffffffffffffffffffffffffffffffff1673ffffffffffffffffffffffffffffffffffffffff1681526020019081526020015f2060010190816104fc9190610b07565b508173ffffffffffffffffffffffffffffffffffffffff167f8c3f0a126770a9ca2d1d20fb0ec1cd3de15ef9f431b88f9455821931ecf49f14826040516105439190610cf9565b60405180910390a25050565b5f604051905090565b5f5ffd5b5f5ffd5b5f73ffffffffffffffffffffffffffffffffffffffff82169050919050565b5f61058982610560565b9050919050565b6105998161057f565b81146105a3575f5ffd5b50565b5f813590506105b481610590565b92915050565b5f602082840312156105cf576105ce610558565b5b5f6105dc848285016105a6565b91505092915050565b5f819050919050565b6105f7816105e5565b82525050565b5f81519050919050565b5f82825260208201905092915050565b8281835e5f83830152505050565b5f601f19601f8301169050919050565b5f61063f826105fd565b6106498185610607565b9350610659818560208601610617565b61066281610625565b840191505092915050565b7f4e487b71000000000000000000000000000000000000000000000000000000005f52602160045260245ffd5b600381106106ab576106aa61066d565b5b50565b5f8190506106bb8261069a565b919050565b5f6106ca826106ae565b9050919050565b6106da816106c0565b82525050565b5f8115159050919050565b6106f4816106e0565b82525050565b5f60a08201905061070d5f8301886105ee565b818103602083015261071f8187610635565b905061072e60408301866105ee565b61073b60608301856106d1565b61074860808301846106eb565b9695505050505050565b5f6020820190506107655f8301846106eb565b92915050565b5f5ffd5b5f5ffd5b7f4e487b71000000000000000000000000000000000000000000000000000000005f52604160045260245ffd5b6107a982610625565b810181811067ffffffffffffffff821117156107c8576107c7610773565b5b80604052505050565b5f6107da61054f565b90506107e682826107a0565b919050565b5f67ffffffffffffffff82111561080557610804610773565b5b61080e82610625565b9050602081019050919050565b828183375f83830152505050565b5f61083b610836846107eb565b6107d1565b9050828152602081018484840111156108575761085661076f565b5b61086284828561081b565b509392505050565b5f82601f83011261087e5761087d61076b565b5b813561088e848260208601610829565b91505092915050565b5f5f604083850312156108ad576108ac610558565b5b5f6108ba858286016105a6565b925050602083013567ffffffffffffffff8111156108db576108da61055c565b5b6108e78582860161086a565b9150509250929050565b5f6020820190506109045f8301846105ee565b92915050565b7f4e487b71000000000000000000000000000000000000000000000000000000005f52602260045260245ffd5b5f600282049050600182168061094e57607f821691505b6020821081036109615761096061090a565b5b50919050565b5f819050815f5260205f209050919050565b5f6020601f8301049050919050565b5f82821b905092915050565b5f600883026109c37fffffffffffffffffffffffffffffffffffffffffffffffffffffffffffffffff82610988565b6109cd8683610988565b95508019841693508086168417925050509392505050565b5f819050919050565b5f610a08610a036109fe846105e5565b6109e5565b6105e5565b9050919050565b5f819050919050565b610a21836109ee565b610a35610a2d82610a0f565b848454610994565b825550505050565b5f5f905090565b610a4c610a3d565b610a57818484610a18565b505050565b5b81811015610a7a57610a6f5f82610a44565b600181019050610a5d565b5050565b601f821115610abf57610a9081610967565b610a9984610979565b81016020851015610aa8578190505b610abc610ab485610979565b830182610a5c565b50505b505050565b5f82821c905092915050565b5f610adf5f1984600802610ac4565b1980831691505092915050565b5f610af78383610ad0565b9150826002028217905092915050565b610b10826105fd565b67ffffffffffffffff811115610b2957610b28610773565b5b610b338254610937565b610b3e828285610a7e565b5f60209050601f831160018114610b6f575f8415610b5d578287015190505b610b678582610aec565b865550610bce565b601f198416610b7d86610967565b5f5b82811015610ba457848901518255600182019150602085019450602081019050610b7f565b86831015610bc15784890151610bbd601f891682610ad0565b8355505b6001600288020188555050505b505050505050565b5f8154610be281610937565b610bec8186610607565b9450600182165f8114610c065760018114610c1c57610c4e565b60ff198316865281151560200286019350610c4e565b610c2585610967565b5f5b83811015610c4657815481890152600182019150602081019050610c27565b808801955050505b50505092915050565b5f604082019050610c6a5f8301856105ee565b8181036020830152610c7c8184610bd6565b90509392505050565b7f4e487b71000000000000000000000000000000000000000000000000000000005f52601160045260245ffd5b5f610cbc826105e5565b91507fffffffffffffffffffffffffffffffffffffffffffffffffffffffffffffffff8203610cee57610ced610c85565b5b600182019050919050565b5f6020820190508181035f830152610d118184610635565b90509291505056fea2646970667358221220ef7b6e93cfc8b90dc85ea781d143fd3fecc5921644594c8aca2f5f5140f2a15764736f6c634300081e0033",
					"opcodes": "PUSH1 0x80 PUSH1 0x40 MSTORE PUSH1 0x1 DUP1 SSTORE CALLVALUE DUP1 ISZERO PUSH1 0x12 JUMPI PUSH0 PUSH0 REVERT JUMPDEST POP PUSH2 0xD4F DUP1 PUSH2 0x20 PUSH0 CODECOPY PUSH0 RETURN INVALID PUSH1 0x80 PUSH1 0x40 MSTORE CALLVALUE DUP1 ISZERO PUSH2 0xF JUMPI PUSH0 PUSH0 REVERT JUMPDEST POP PUSH1 0x4 CALLDATASIZE LT PUSH2 0x60 JUMPI PUSH0 CALLDATALOAD PUSH1 0xE0 SHR DUP1 PUSH4 0xB1CA49A EQ PUSH2 0x64 JUMPI DUP1 PUSH4 0x83FD0954 EQ PUSH2 0x80 JUMPI DUP1 PUSH4 0xA230C524 EQ PUSH2 0xB4 JUMPI DUP1 PUSH4 0xC127C247 EQ PUSH2 0xE4 JUMPI DUP1 PUSH4 0xCB37BE9E EQ PUSH2 0x100 JUMPI DUP1 PUSH4 0xE83162D2 EQ PUSH2 0x11E JUMPI JUMPDEST PUSH0 PUSH0 REVERT JUMPDEST PUSH2 0x7E PUSH1 0x4 DUP1 CALLDATASIZE SUB DUP2 ADD SWAP1 PUSH2 0x79 SWAP2 SWAP1 PUSH2 0x5BA JUMP JUMPDEST PUSH2 0x13A JUMP JUMPDEST STOP JUMPDEST PUSH2 0x9A PUSH1 0x4 DUP1 CALLDATASIZE SUB DUP2 ADD SWAP1 PUSH2 0x95 SWAP2 SWAP1 PUSH2 0x5BA JUMP JUMPDEST PUSH2 0x1D7 JUMP JUMPDEST PUSH1 0x40 MLOAD PUSH2 0xAB SWAP6 SWAP5 SWAP4 SWAP3 SWAP2 SWAP1 PUSH2 0x6FA JUMP JUMPDEST PUSH1 0x40 MLOAD DUP1 SWAP2 SUB SWAP1 RETURN JUMPDEST PUSH2 0xCE PUSH1 0x4 DUP1 CALLDATASIZE SUB DUP2 ADD SWAP1 PUSH2 0xC9 SWAP2 SWAP1 PUSH2 0x5BA JUMP JUMPDEST PUSH2 0x2EA JUMP JUMPDEST PUSH1 0x40 MLOAD PUSH2 0xDB SWAP2 SWAP1 PUSH2 0x752 JUMP JUMPDEST PUSH1 0x40 MLOAD DUP1 SWAP2 SUB SWAP1 RETURN JUMPDEST PUSH2 0xFE PUSH1 0x4 DUP1 CALLDATASIZE SUB DUP2 ADD SWAP1 PUSH2 0xF9 SWAP2 SWAP1 PUSH2 0x897 JUMP JUMPDEST PUSH2 0x389 JUMP JUMPDEST STOP JUMPDEST PUSH2 0x108 PUSH2 0x4A7 JUMP JUMPDEST PUSH1 0x40 MLOAD PUSH2 0x115 SWAP2 SWAP1 PUSH2 0x8F1 JUMP JUMPDEST PUSH1 0x40 MLOAD DUP1 SWAP2 SUB SWAP1 RETURN JUMPDEST PUSH2 0x138 PUSH1 0x4 DUP1 CALLDATASIZE SUB DUP2 ADD SWAP1 PUSH2 0x133 SWAP2 SWAP1 PUSH2 0x897 JUMP JUMPDEST PUSH2 0x4B0 JUMP JUMPDEST STOP JUMPDEST PUSH0 PUSH0 PUSH0 DUP4 PUSH20 0xFFFFFFFFFFFFFFFFFFFFFFFFFFFFFFFFFFFFFFFF AND PUSH20 0xFFFFFFFFFFFFFFFFFFFFFFFFFFFFFFFFFFFFFFFF AND DUP2 MSTORE PUSH1 0x20 ADD SWAP1 DUP2 MSTORE PUSH1 0x20 ADD PUSH0 KECCAK256 PUSH1 0x3 ADD PUSH1 0x1 PUSH2 0x100 EXP DUP2 SLOAD DUP2 PUSH1 0xFF MUL NOT AND SWAP1 DUP4 ISZERO ISZERO MUL OR SWAP1 SSTORE POP DUP1 PUSH20 0xFFFFFFFFFFFFFFFFFFFFFFFFFFFFFFFFFFFFFFFF AND PUSH32 0x6E76FB4C77256006D9C38EC7D82B45A8C8F3C27B1D6766FFFC42DFB8DE684492 PUSH1 0x40 MLOAD PUSH1 0x40 MLOAD DUP1 SWAP2 SUB SWAP1 LOG2 POP JUMP JUMPDEST PUSH0 PUSH1 0x60 PUSH0 PUSH0 PUSH0 PUSH0 PUSH0 PUSH0 DUP9 PUSH20 0xFFFFFFFFFFFFFFFFFFFFFFFFFFFFFFFFFFFFFFFF AND PUSH20 0xFFFFFFFFFFFFFFFFFFFFFFFFFFFFFFFFFFFFFFFF AND DUP2 MSTORE PUSH1 0x20 ADD SWAP1 DUP2 MSTORE PUSH1 0x20 ADD PUSH0 KECCAK256 SWAP1 POP DUP1 PUSH0 ADD SLOAD DUP2 PUSH1 0x1 ADD DUP3 PUSH1 0x2 ADD SLOAD DUP4 PUSH1 0x3 ADD PUSH0 SWAP1 SLOAD SWAP1 PUSH2 0x100 EXP SWAP1 DIV PUSH1 0xFF AND DUP5 PUSH1 0x3 ADD PUSH1 0x1 SWAP1 SLOAD SWAP1 PUSH2 0x100 EXP SWAP1 DIV PUSH1 0xFF AND DUP4 DUP1 SLOAD PUSH2 0x258 SWAP1 PUSH2 0x937 JUMP JUMPDEST DUP1 PUSH1 0x1F ADD PUSH1 0x20 DUP1 SWAP2 DIV MUL PUSH1 0x20 ADD PUSH1 0x40 MLOAD SWAP1 DUP2 ADD PUSH1 0x40 MSTORE DUP1 SWAP3 SWAP2 SWAP1 DUP2 DUP2 MSTORE PUSH1 0x20 ADD DUP3 DUP1 SLOAD PUSH2 0x284 SWAP1 PUSH2 0x937 JUMP JUMPDEST DUP1 ISZERO PUSH2 0x2CF JUMPI DUP1 PUSH1 0x1F LT PUSH2 0x2A6 JUMPI PUSH2 0x100 DUP1 DUP4 SLOAD DIV MUL DUP4 MSTORE SWAP2 PUSH1 0x20 ADD SWAP2 PUSH2 0x2CF JUMP JUMPDEST DUP3 ADD SWAP2 SWAP1 PUSH0 MSTORE PUSH1 0x20 PUSH0 KECCAK256 SWAP1 JUMPDEST DUP2 SLOAD DUP2 MSTORE SWAP1 PUSH1 0x1 ADD SWAP1 PUSH1 0x20 ADD DUP1 DUP4 GT PUSH2 0x2B2 JUMPI DUP3 SWAP1 SUB PUSH1 0x1F AND DUP3 ADD SWAP2 JUMPDEST POP POP POP POP POP SWAP4 POP SWAP6 POP SWAP6 POP SWAP6 POP SWAP6 POP SWAP6 POP POP SWAP2 SWAP4 SWAP6 SWAP1 SWAP3 SWAP5 POP JUMP JUMPDEST PUSH0 PUSH0 PUSH0 PUSH0 DUP5 PUSH20 0xFFFFFFFFFFFFFFFFFFFFFFFFFFFFFFFFFFFFFFFF AND PUSH20 0xFFFFFFFFFFFFFFFFFFFFFFFFFFFFFFFFFFFFFFFF AND DUP2 MSTORE PUSH1 0x20 ADD SWAP1 DUP2 MSTORE PUSH1 0x20 ADD PUSH0 KECCAK256 PUSH0 ADD SLOAD EQ ISZERO DUP1 ISZERO PUSH2 0x382 JUMPI POP PUSH0 PUSH0 DUP4 PUSH20 0xFFFFFFFFFFFFFFFFFFFFFFFFFFFFFFFFFFFFFFFF AND PUSH20 0xFFFFFFFFFFFFFFFFFFFFFFFFFFFFFFFFFFFFFFFF AND DUP2 MSTORE PUSH1 0x20 ADD SWAP1 DUP2 MSTORE PUSH1 0x20 ADD PUSH0 KECCAK256 PUSH1 0x3 ADD PUSH1 0x1 SWAP1 SLOAD SWAP1 PUSH2 0x100 EXP SWAP1 DIV PUSH1 0xFF AND JUMPDEST SWAP1 POP SWAP2 SWAP1 POP JUMP JUMPDEST PUSH0 PUSH0 PUSH0 DUP5 PUSH20 0xFFFFFFFFFFFFFFFFFFFFFFFFFFFFFFFFFFFFFFFF AND PUSH20 0xFFFFFFFFFFFFFFFFFFFFFFFFFFFFFFFFFFFFFFFF AND DUP2 MSTORE PUSH1 0x20 ADD SWAP1 DUP2 MSTORE PUSH1 0x20 ADD PUSH0 KECCAK256 SWAP1 POP PUSH1 0x1 SLOAD DUP2 PUSH0 ADD DUP2 SWAP1 SSTORE POP DUP2 DUP2 PUSH1 0x1 ADD SWAP1 DUP2 PUSH2 0x3E3 SWAP2 SWAP1 PUSH2 0xB07 JUMP JUMPDEST POP PUSH0 DUP2 PUSH1 0x2 ADD DUP2 SWAP1 SSTORE POP PUSH0 DUP2 PUSH1 0x3 ADD PUSH0 PUSH2 0x100 EXP DUP2 SLOAD DUP2 PUSH1 0xFF MUL NOT AND SWAP1 DUP4 PUSH1 0x2 DUP2 GT ISZERO PUSH2 0x413 JUMPI PUSH2 0x412 PUSH2 0x66D JUMP JUMPDEST JUMPDEST MUL OR SWAP1 SSTORE POP PUSH1 0x1 DUP2 PUSH1 0x3 ADD PUSH1 0x1 PUSH2 0x100 EXP DUP2 SLOAD DUP2 PUSH1 0xFF MUL NOT AND SWAP1 DUP4 ISZERO ISZERO MUL OR SWAP1 SSTORE POP DUP3 PUSH20 0xFFFFFFFFFFFFFFFFFFFFFFFFFFFFFFFFFFFFFFFF AND PUSH32 0x411CA3C73320E32049030C152EBF6EC3670D7BD79481083214171DD817AEBAA8 DUP3 PUSH0 ADD SLOAD DUP4 PUSH1 0x1 ADD PUSH1 0x40 MLOAD PUSH2 0x483 SWAP3 SWAP2 SWAP1 PUSH2 0xC57 JUMP JUMPDEST PUSH1 0x40 MLOAD DUP1 SWAP2 SUB SWAP1 LOG2 PUSH1 0x1 PUSH0 DUP2 SLOAD DUP1 SWAP3 SWAP2 SWAP1 PUSH2 0x49D SWAP1 PUSH2 0xCB2 JUMP JUMPDEST SWAP2 SWAP1 POP SSTORE POP POP POP POP JUMP JUMPDEST PUSH0 PUSH1 0x1 SLOAD SWAP1 POP SWAP1 JUMP JUMPDEST DUP1 PUSH0 PUSH0 DUP5 PUSH20 0xFFFFFFFFFFFFFFFFFFFFFFFFFFFFFFFFFFFFFFFF AND PUSH20 0xFFFFFFFFFFFFFFFFFFFFFFFFFFFFFFFFFFFFFFFF AND DUP2 MSTORE PUSH1 0x20 ADD SWAP1 DUP2 MSTORE PUSH1 0x20 ADD PUSH0 KECCAK256 PUSH1 0x1 ADD SWAP1 DUP2 PUSH2 0x4FC SWAP2 SWAP1 PUSH2 0xB07 JUMP JUMPDEST POP DUP2 PUSH20 0xFFFFFFFFFFFFFFFFFFFFFFFFFFFFFFFFFFFFFFFF AND PUSH32 0x8C3F0A126770A9CA2D1D20FB0EC1CD3DE15EF9F431B88F9455821931ECF49F14 DUP3 PUSH1 0x40 MLOAD PUSH2 0x543 SWAP2 SWAP1 PUSH2 0xCF9 JUMP JUMPDEST PUSH1 0x40 MLOAD DUP1 SWAP2 SUB SWAP1 LOG2 POP POP JUMP JUMPDEST PUSH0 PUSH1 0x40 MLOAD SWAP1 POP SWAP1 JUMP JUMPDEST PUSH0 PUSH0 REVERT JUMPDEST PUSH0 PUSH0 REVERT JUMPDEST PUSH0 PUSH20 0xFFFFFFFFFFFFFFFFFFFFFFFFFFFFFFFFFFFFFFFF DUP3 AND SWAP1 POP SWAP2 SWAP1 POP JUMP JUMPDEST PUSH0 PUSH2 0x589 DUP3 PUSH2 0x560 JUMP JUMPDEST SWAP1 POP SWAP2 SWAP1 POP JUMP JUMPDEST PUSH2 0x599 DUP2 PUSH2 0x57F JUMP JUMPDEST DUP2 EQ PUSH2 0x5A3 JUMPI PUSH0 PUSH0 REVERT JUMPDEST POP JUMP JUMPDEST PUSH0 DUP2 CALLDATALOAD SWAP1 POP PUSH2 0x5B4 DUP2 PUSH2 0x590 JUMP JUMPDEST SWAP3 SWAP2 POP POP JUMP JUMPDEST PUSH0 PUSH1 0x20 DUP3 DUP5 SUB SLT ISZERO PUSH2 0x5CF JUMPI PUSH2 0x5CE PUSH2 0x558 JUMP JUMPDEST JUMPDEST PUSH0 PUSH2 0x5DC DUP5 DUP3 DUP6 ADD PUSH2 0x5A6 JUMP JUMPDEST SWAP2 POP POP SWAP3 SWAP2 POP POP JUMP JUMPDEST PUSH0 DUP2 SWAP1 POP SWAP2 SWAP1 POP JUMP JUMPDEST PUSH2 0x5F7 DUP2 PUSH2 0x5E5 JUMP JUMPDEST DUP3 MSTORE POP POP JUMP JUMPDEST PUSH0 DUP2 MLOAD SWAP1 POP SWAP2 SWAP1 POP JUMP JUMPDEST PUSH0 DUP3 DUP3 MSTORE PUSH1 0x20 DUP3 ADD SWAP1 POP SWAP3 SWAP2 POP POP JUMP JUMPDEST DUP3 DUP2 DUP4 MCOPY PUSH0 DUP4 DUP4 ADD MSTORE POP POP POP JUMP JUMPDEST PUSH0 PUSH1 0x1F NOT PUSH1 0x1F DUP4 ADD AND SWAP1 POP SWAP2 SWAP1 POP JUMP JUMPDEST PUSH0 PUSH2 0x63F DUP3 PUSH2 0x5FD JUMP JUMPDEST PUSH2 0x649 DUP2 DUP6 PUSH2 0x607 JUMP JUMPDEST SWAP4 POP PUSH2 0x659 DUP2 DUP6 PUSH1 0x20 DUP7 ADD PUSH2 0x617 JUMP JUMPDEST PUSH2 0x662 DUP2 PUSH2 0x625 JUMP JUMPDEST DUP5 ADD SWAP2 POP POP SWAP3 SWAP2 POP POP JUMP JUMPDEST PUSH32 0x4E487B7100000000000000000000000000000000000000000000000000000000 PUSH0 MSTORE PUSH1 0x21 PUSH1 0x4 MSTORE PUSH1 0x24 PUSH0 REVERT JUMPDEST PUSH1 0x3 DUP2 LT PUSH2 0x6AB JUMPI PUSH2 0x6AA PUSH2 0x66D JUMP JUMPDEST JUMPDEST POP JUMP JUMPDEST PUSH0 DUP2 SWAP1 POP PUSH2 0x6BB DUP3 PUSH2 0x69A JUMP JUMPDEST SWAP2 SWAP1 POP JUMP JUMPDEST PUSH0 PUSH2 0x6CA DUP3 PUSH2 0x6AE JUMP JUMPDEST SWAP1 POP SWAP2 SWAP1 POP JUMP JUMPDEST PUSH2 0x6DA DUP2 PUSH2 0x6C0 JUMP JUMPDEST DUP3 MSTORE POP POP JUMP JUMPDEST PUSH0 DUP2 ISZERO ISZERO SWAP1 POP SWAP2 SWAP1 POP JUMP JUMPDEST PUSH2 0x6F4 DUP2 PUSH2 0x6E0 JUMP JUMPDEST DUP3 MSTORE POP POP JUMP JUMPDEST PUSH0 PUSH1 0xA0 DUP3 ADD SWAP1 POP PUSH2 0x70D PUSH0 DUP4 ADD DUP9 PUSH2 0x5EE JUMP JUMPDEST DUP2 DUP2 SUB PUSH1 0x20 DUP4 ADD MSTORE PUSH2 0x71F DUP2 DUP8 PUSH2 0x635 JUMP JUMPDEST SWAP1 POP PUSH2 0x72E PUSH1 0x40 DUP4 ADD DUP7 PUSH2 0x5EE JUMP JUMPDEST PUSH2 0x73B PUSH1 0x60 DUP4 ADD DUP6 PUSH2 0x6D1 JUMP JUMPDEST PUSH2 0x748 PUSH1 0x80 DUP4 ADD DUP5 PUSH2 0x6EB JUMP JUMPDEST SWAP7 SWAP6 POP POP POP POP POP POP JUMP JUMPDEST PUSH0 PUSH1 0x20 DUP3 ADD SWAP1 POP PUSH2 0x765 PUSH0 DUP4 ADD DUP5 PUSH2 0x6EB JUMP JUMPDEST SWAP3 SWAP2 POP POP JUMP JUMPDEST PUSH0 PUSH0 REVERT JUMPDEST PUSH0 PUSH0 REVERT JUMPDEST PUSH32 0x4E487B7100000000000000000000000000000000000000000000000000000000 PUSH0 MSTORE PUSH1 0x41 PUSH1 0x4 MSTORE PUSH1 0x24 PUSH0 REVERT JUMPDEST PUSH2 0x7A9 DUP3 PUSH2 0x625 JUMP JUMPDEST DUP2 ADD DUP2 DUP2 LT PUSH8 0xFFFFFFFFFFFFFFFF DUP3 GT OR ISZERO PUSH2 0x7C8 JUMPI PUSH2 0x7C7 PUSH2 0x773 JUMP JUMPDEST JUMPDEST DUP1 PUSH1 0x40 MSTORE POP POP POP JUMP JUMPDEST PUSH0 PUSH2 0x7DA PUSH2 0x54F JUMP JUMPDEST SWAP1 POP PUSH2 0x7E6 DUP3 DUP3 PUSH2 0x7A0 JUMP JUMPDEST SWAP2 SWAP1 POP JUMP JUMPDEST PUSH0 PUSH8 0xFFFFFFFFFFFFFFFF DUP3 GT ISZERO PUSH2 0x805 JUMPI PUSH2 0x804 PUSH2 0x773 JUMP JUMPDEST JUMPDEST PUSH2 0x80E DUP3 PUSH2 0x625 JUMP JUMPDEST SWAP1 POP PUSH1 0x20 DUP2 ADD SWAP1 POP SWAP2 SWAP1 POP JUMP JUMPDEST DUP3 DUP2 DUP4 CALLDATACOPY PUSH0 DUP4 DUP4 ADD MSTORE POP POP POP JUMP JUMPDEST PUSH0 PUSH2 0x83B PUSH2 0x836 DUP5 PUSH2 0x7EB JUMP JUMPDEST PUSH2 0x7D1 JUMP JUMPDEST SWAP1 POP DUP3 DUP2 MSTORE PUSH1 0x20 DUP2 ADD DUP5 DUP5 DUP5 ADD GT ISZERO PUSH2 0x857 JUMPI PUSH2 0x856 PUSH2 0x76F JUMP JUMPDEST JUMPDEST PUSH2 0x862 DUP5 DUP3 DUP6 PUSH2 0x81B JUMP JUMPDEST POP SWAP4 SWAP3 POP POP POP JUMP JUMPDEST PUSH0 DUP3 PUSH1 0x1F DUP4 ADD SLT PUSH2 0x87E JUMPI PUSH2 0x87D PUSH2 0x76B JUMP JUMPDEST JUMPDEST DUP2 CALLDATALOAD PUSH2 0x88E DUP5 DUP3 PUSH1 0x20 DUP7 ADD PUSH2 0x829 JUMP JUMPDEST SWAP2 POP POP SWAP3 SWAP2 POP POP JUMP JUMPDEST PUSH0 PUSH0 PUSH1 0x40 DUP4 DUP6 SUB SLT ISZERO PUSH2 0x8AD JUMPI PUSH2 0x8AC PUSH2 0x558 JUMP JUMPDEST JUMPDEST PUSH0 PUSH2 0x8BA DUP6 DUP3 DUP7 ADD PUSH2 0x5A6 JUMP JUMPDEST SWAP3 POP POP PUSH1 0x20 DUP4 ADD CALLDATALOAD PUSH8 0xFFFFFFFFFFFFFFFF DUP2 GT ISZERO PUSH2 0x8DB JUMPI PUSH2 0x8DA PUSH2 0x55C JUMP JUMPDEST JUMPDEST PUSH2 0x8E7 DUP6 DUP3 DUP7 ADD PUSH2 0x86A JUMP JUMPDEST SWAP2 POP POP SWAP3 POP SWAP3 SWAP1 POP JUMP JUMPDEST PUSH0 PUSH1 0x20 DUP3 ADD SWAP1 POP PUSH2 0x904 PUSH0 DUP4 ADD DUP5 PUSH2 0x5EE JUMP JUMPDEST SWAP3 SWAP2 POP POP JUMP JUMPDEST PUSH32 0x4E487B7100000000000000000000000000000000000000000000000000000000 PUSH0 MSTORE PUSH1 0x22 PUSH1 0x4 MSTORE PUSH1 0x24 PUSH0 REVERT JUMPDEST PUSH0 PUSH1 0x2 DUP3 DIV SWAP1 POP PUSH1 0x1 DUP3 AND DUP1 PUSH2 0x94E JUMPI PUSH1 0x7F DUP3 AND SWAP2 POP JUMPDEST PUSH1 0x20 DUP3 LT DUP2 SUB PUSH2 0x961 JUMPI PUSH2 0x960 PUSH2 0x90A JUMP JUMPDEST JUMPDEST POP SWAP2 SWAP1 POP JUMP JUMPDEST PUSH0 DUP2 SWAP1 POP DUP2 PUSH0 MSTORE PUSH1 0x20 PUSH0 KECCAK256 SWAP1 POP SWAP2 SWAP1 POP JUMP JUMPDEST PUSH0 PUSH1 0x20 PUSH1 0x1F DUP4 ADD DIV SWAP1 POP SWAP2 SWAP1 POP JUMP JUMPDEST PUSH0 DUP3 DUP3 SHL SWAP1 POP SWAP3 SWAP2 POP POP JUMP JUMPDEST PUSH0 PUSH1 0x8 DUP4 MUL PUSH2 0x9C3 PUSH32 0xFFFFFFFFFFFFFFFFFFFFFFFFFFFFFFFFFFFFFFFFFFFFFFFFFFFFFFFFFFFFFFFF DUP3 PUSH2 0x988 JUMP JUMPDEST PUSH2 0x9CD DUP7 DUP4 PUSH2 0x988 JUMP JUMPDEST SWAP6 POP DUP1 NOT DUP5 AND SWAP4 POP DUP1 DUP7 AND DUP5 OR SWAP3 POP POP POP SWAP4 SWAP3 POP POP POP JUMP JUMPDEST PUSH0 DUP2 SWAP1 POP SWAP2 SWAP1 POP JUMP JUMPDEST PUSH0 PUSH2 0xA08 PUSH2 0xA03 PUSH2 0x9FE DUP5 PUSH2 0x5E5 JUMP JUMPDEST PUSH2 0x9E5 JUMP JUMPDEST PUSH2 0x5E5 JUMP JUMPDEST SWAP1 POP SWAP2 SWAP1 POP JUMP JUMPDEST PUSH0 DUP2 SWAP1 POP SWAP2 SWAP1 POP JUMP JUMPDEST PUSH2 0xA21 DUP4 PUSH2 0x9EE JUMP JUMPDEST PUSH2 0xA35 PUSH2 0xA2D DUP3 PUSH2 0xA0F JUMP JUMPDEST DUP5 DUP5 SLOAD PUSH2 0x994 JUMP JUMPDEST DUP3 SSTORE POP POP POP POP JUMP JUMPDEST PUSH0 PUSH0 SWAP1 POP SWAP1 JUMP JUMPDEST PUSH2 0xA4C PUSH2 0xA3D JUMP JUMPDEST PUSH2 0xA57 DUP2 DUP5 DUP5 PUSH2 0xA18 JUMP JUMPDEST POP POP POP JUMP JUMPDEST JUMPDEST DUP2 DUP2 LT ISZERO PUSH2 0xA7A JUMPI PUSH2 0xA6F PUSH0 DUP3 PUSH2 0xA44 JUMP JUMPDEST PUSH1 0x1 DUP2 ADD SWAP1 POP PUSH2 0xA5D JUMP JUMPDEST POP POP JUMP JUMPDEST PUSH1 0x1F DUP3 GT ISZERO PUSH2 0xABF JUMPI PUSH2 0xA90 DUP2 PUSH2 0x967 JUMP JUMPDEST PUSH2 0xA99 DUP5 PUSH2 0x979 JUMP JUMPDEST DUP2 ADD PUSH1 0x20 DUP6 LT ISZERO PUSH2 0xAA8 JUMPI DUP2 SWAP1 POP JUMPDEST PUSH2 0xABC PUSH2 0xAB4 DUP6 PUSH2 0x979 JUMP JUMPDEST DUP4 ADD DUP3 PUSH2 0xA5C JUMP JUMPDEST POP POP JUMPDEST POP POP POP JUMP JUMPDEST PUSH0 DUP3 DUP3 SHR SWAP1 POP SWAP3 SWAP2 POP POP JUMP JUMPDEST PUSH0 PUSH2 0xADF PUSH0 NOT DUP5 PUSH1 0x8 MUL PUSH2 0xAC4 JUMP JUMPDEST NOT DUP1 DUP4 AND SWAP2 POP POP SWAP3 SWAP2 POP POP JUMP JUMPDEST PUSH0 PUSH2 0xAF7 DUP4 DUP4 PUSH2 0xAD0 JUMP JUMPDEST SWAP2 POP DUP3 PUSH1 0x2 MUL DUP3 OR SWAP1 POP SWAP3 SWAP2 POP POP JUMP JUMPDEST PUSH2 0xB10 DUP3 PUSH2 0x5FD JUMP JUMPDEST PUSH8 0xFFFFFFFFFFFFFFFF DUP2 GT ISZERO PUSH2 0xB29 JUMPI PUSH2 0xB28 PUSH2 0x773 JUMP JUMPDEST JUMPDEST PUSH2 0xB33 DUP3 SLOAD PUSH2 0x937 JUMP JUMPDEST PUSH2 0xB3E DUP3 DUP3 DUP6 PUSH2 0xA7E JUMP JUMPDEST PUSH0 PUSH1 0x20 SWAP1 POP PUSH1 0x1F DUP4 GT PUSH1 0x1 DUP2 EQ PUSH2 0xB6F JUMPI PUSH0 DUP5 ISZERO PUSH2 0xB5D JUMPI DUP3 DUP8 ADD MLOAD SWAP1 POP JUMPDEST PUSH2 0xB67 DUP6 DUP3 PUSH2 0xAEC JUMP JUMPDEST DUP7 SSTORE POP PUSH2 0xBCE JUMP JUMPDEST PUSH1 0x1F NOT DUP5 AND PUSH2 0xB7D DUP7 PUSH2 0x967 JUMP JUMPDEST PUSH0 JUMPDEST DUP3 DUP2 LT ISZERO PUSH2 0xBA4 JUMPI DUP5 DUP10 ADD MLOAD DUP3 SSTORE PUSH1 0x1 DUP3 ADD SWAP2 POP PUSH1 0x20 DUP6 ADD SWAP5 POP PUSH1 0x20 DUP2 ADD SWAP1 POP PUSH2 0xB7F JUMP JUMPDEST DUP7 DUP4 LT ISZERO PUSH2 0xBC1 JUMPI DUP5 DUP10 ADD MLOAD PUSH2 0xBBD PUSH1 0x1F DUP10 AND DUP3 PUSH2 0xAD0 JUMP JUMPDEST DUP4 SSTORE POP JUMPDEST PUSH1 0x1 PUSH1 0x2 DUP9 MUL ADD DUP9 SSTORE POP POP POP JUMPDEST POP POP POP POP POP POP JUMP JUMPDEST PUSH0 DUP2 SLOAD PUSH2 0xBE2 DUP2 PUSH2 0x937 JUMP JUMPDEST PUSH2 0xBEC DUP2 DUP7 PUSH2 0x607 JUMP JUMPDEST SWAP5 POP PUSH1 0x1 DUP3 AND PUSH0 DUP2 EQ PUSH2 0xC06 JUMPI PUSH1 0x1 DUP2 EQ PUSH2 0xC1C JUMPI PUSH2 0xC4E JUMP JUMPDEST PUSH1 0xFF NOT DUP4 AND DUP7 MSTORE DUP2 ISZERO ISZERO PUSH1 0x20 MUL DUP7 ADD SWAP4 POP PUSH2 0xC4E JUMP JUMPDEST PUSH2 0xC25 DUP6 PUSH2 0x967 JUMP JUMPDEST PUSH0 JUMPDEST DUP4 DUP2 LT ISZERO PUSH2 0xC46 JUMPI DUP2 SLOAD DUP2 DUP10 ADD MSTORE PUSH1 0x1 DUP3 ADD SWAP2 POP PUSH1 0x20 DUP2 ADD SWAP1 POP PUSH2 0xC27 JUMP JUMPDEST DUP1 DUP9 ADD SWAP6 POP POP POP JUMPDEST POP POP POP SWAP3 SWAP2 POP POP JUMP JUMPDEST PUSH0 PUSH1 0x40 DUP3 ADD SWAP1 POP PUSH2 0xC6A PUSH0 DUP4 ADD DUP6 PUSH2 0x5EE JUMP JUMPDEST DUP2 DUP2 SUB PUSH1 0x20 DUP4 ADD MSTORE PUSH2 0xC7C DUP2 DUP5 PUSH2 0xBD6 JUMP JUMPDEST SWAP1 POP SWAP4 SWAP3 POP POP POP JUMP JUMPDEST PUSH32 0x4E487B7100000000000000000000000000000000000000000000000000000000 PUSH0 MSTORE PUSH1 0x11 PUSH1 0x4 MSTORE PUSH1 0x24 PUSH0 REVERT JUMPDEST PUSH0 PUSH2 0xCBC DUP3 PUSH2 0x5E5 JUMP JUMPDEST SWAP2 POP PUSH32 0xFFFFFFFFFFFFFFFFFFFFFFFFFFFFFFFFFFFFFFFFFFFFFFFFFFFFFFFFFFFFFFFF DUP3 SUB PUSH2 0xCEE JUMPI PUSH2 0xCED PUSH2 0xC85 JUMP JUMPDEST JUMPDEST PUSH1 0x1 DUP3 ADD SWAP1 POP SWAP2 SWAP1 POP JUMP JUMPDEST PUSH0 PUSH1 0x20 DUP3 ADD SWAP1 POP DUP2 DUP2 SUB PUSH0 DUP4 ADD MSTORE PUSH2 0xD11 DUP2 DUP5 PUSH2 0x635 JUMP JUMPDEST SWAP1 POP SWAP3 SWAP2 POP POP JUMP INVALID LOG2 PUSH5 0x6970667358 0x22 SLT KECCAK256 0xEF PUSH28 0x6E93CFC8B90DC85EA781D143FD3FECC5921644594C8ACA2F5F5140F2 LOG1 JUMPI PUSH5 0x736F6C6343 STOP ADDMOD 0x1E STOP CALLER "
				},
				"gasEstimates": {
					"creation": {
						"codeDepositCost": "681400",
						"executionCost": "22819",
						"totalCost": "704219"
					},
					"external": {
						"addMember(address,string)": "infinite",
						"getMemberDetails(address)": "infinite",
						"getNextMemberId()": "2498",
						"isMember(address)": "5173",
						"removeMember(address)": "25997",
						"updateMemberName(address,string)": "infinite"
					}
				},
				"methodIdentifiers": {
					"addMember(address,string)": "c127c247",
					"getMemberDetails(address)": "83fd0954",
					"getNextMemberId()": "cb37be9e",
					"isMember(address)": "a230c524",
					"removeMember(address)": "0b1ca49a",
					"updateMemberName(address,string)": "e83162d2"
				}
			},
			"storageLayout": {
				"storage": [
					{
						"astId": 22,
						"contract": "contracts/MembershipSystemUpgrade.sol:MembershipSystem",
						"label": "members",
						"offset": 0,
						"slot": "0",
						"type": "t_mapping(t_address,t_struct(Member)17_storage)"
					},
					{
						"astId": 25,
						"contract": "contracts/MembershipSystemUpgrade.sol:MembershipSystem",
						"label": "memberCounter",
						"offset": 0,
						"slot": "1",
						"type": "t_uint256"
					}
				],
				"types": {
					"t_address": {
						"encoding": "inplace",
						"label": "address",
						"numberOfBytes": "20"
					},
					"t_bool": {
						"encoding": "inplace",
						"label": "bool",
						"numberOfBytes": "1"
					},
					"t_enum(MembershipStatus)5": {
						"encoding": "inplace",
						"label": "enum MembershipSystem.MembershipStatus",
						"numberOfBytes": "1"
					},
					"t_mapping(t_address,t_struct(Member)17_storage)": {
						"encoding": "mapping",
						"key": "t_address",
						"label": "mapping(address => struct MembershipSystem.Member)",
						"numberOfBytes": "32",
						"value": "t_struct(Member)17_storage"
					},
					"t_string_storage": {
						"encoding": "bytes",
						"label": "string",
						"numberOfBytes": "32"
					},
					"t_struct(Member)17_storage": {
						"encoding": "inplace",
						"label": "struct MembershipSystem.Member",
						"members": [
							{
								"astId": 7,
								"contract": "contracts/MembershipSystemUpgrade.sol:MembershipSystem",
								"label": "id",
								"offset": 0,
								"slot": "0",
								"type": "t_uint256"
							},
							{
								"astId": 9,
								"contract": "contracts/MembershipSystemUpgrade.sol:MembershipSystem",
								"label": "name",
								"offset": 0,
								"slot": "1",
								"type": "t_string_storage"
							},
							{
								"astId": 11,
								"contract": "contracts/MembershipSystemUpgrade.sol:MembershipSystem",
								"label": "balance",
								"offset": 0,
								"slot": "2",
								"type": "t_uint256"
							},
							{
								"astId": 14,
								"contract": "contracts/MembershipSystemUpgrade.sol:MembershipSystem",
								"label": "membershipType",
								"offset": 0,
								"slot": "3",
								"type": "t_enum(MembershipStatus)5"
							},
							{
								"astId": 16,
								"contract": "contracts/MembershipSystemUpgrade.sol:MembershipSystem",
								"label": "isActive",
								"offset": 1,
								"slot": "3",
								"type": "t_bool"
							}
						],
						"numberOfBytes": "128"
					},
					"t_uint256": {
						"encoding": "inplace",
						"label": "uint256",
						"numberOfBytes": "32"
					}
				}
			},
			"userdoc": {
				"kind": "user",
				"methods": {},
				"version": 1
			}
		}
	}
}